:020000040800F2
:1000000080050020450100087D0F0008370B00081F
:10001000790F000873090008E716000800000000C7
:10002000000000000000000000000000E9100008CF
:100030007709000800000000F10F0008FD1100081A
:100040005F0100085F0100085F0100085F01000810
:100050005F0100085F010008790900085F010008DE
:100060005F0100085F0100085F0100085F010008F0
:100070005F0100085F0100085F0100085F010008E0
:100080005F0100085F0100085F0100085F010008D0
:100090005F0100085F0100085F0100085F010008C0
:1000A0005F0100085F0100085F0100085F010008B0
:1000B000611200085F0100085F0100085F0100088D
:1000C0005F0100085F0100085F0100085F01000890
:1000D0005F0100081D140008A51400085F01000856
:1000E0005F0100085F0100085F0100085F01000870
:1000F0005F0100085F0100085F0100085F01000860
:100100005F0100085F0100085F0100085F0100084F
:100110005F0100085F0100085F0100085F0100083F
:100120005F0100085F0100085F0100085F0100082F
:10013000DFF80CD000F0AAFB004800476921000856
:10014000800500200648804706480047FEE7FEE796
:10015000FEE7FEE7FEE7FEE7FEE7FEE7FEE7FEE777
:100160000112000831010008F0B480EA0102D40F46
:100170004200B2EB410F02D20246084611464A0045
:1001800042D0C30DDDB2C1F3C752AD1A202D35DA0E
:10019000C1F3160141F4000204B15242C5F1200638
:1001A00002FA06F12A411044B3EBD05F23D0C4B168
:1001B000012DA0EBC35009DCF0BC4FF0004202EA75
:1001C000C352DBB200F5000000F0BEBA400000F1FF
:1001D000807000EBC350A0F1807040EAD1704900FC
:1001E00009E0490841EAC071A0EBC35000F50000E6
:1001F000400800EBC350F0BC00F09DBA6142012200
:1002000002EB4101001BF6E7F0BC704781F00041B2
:10021000AAE780F00040A7E780EA010210B502F0EB
:100220000043400022D04A001FD0010E01EB1261B2
:10023000C0F35600C2F3560240F4000042F400023C
:10024000A0FB022000047F39140400D0401C50EAB7
:10025000124001D44000491EC2B20C0604EBD0107B
:10026000401C4008802A02D003E0002010BD20F08E
:100270000100002900DA0020184310BD30B480EAE4
:10028000010202F0004530F0004221F0004013D09E
:1002900090B1C30DD40DC2F31601C0F31600E41AD9
:1002A00041F4000140F400027D34914201D3641C0A
:1002B00000E04900002C02DA30BC002070474FF407
:1002C00000000023914201D3891A034340084FEAFA
:1002D0004101F7D151B1914202D14FF0004105E007
:1002E00002D24FF0010101E06FF0010103EBC450B5
:1002F000284430BC00F01FBA2DE9FE4F804681EA49
:100300000300C00F0C46009021F0004123F000458F
:10031000B8EB0200A94105D24046214690461C4652
:100320000B46024623F00040104347D0270DC7F389
:100330000A00C3F30A510290401A019040286BDA78
:10034000C3F3130040F4801B0098924620B10023B1
:10035000D2EB030A63EB0B0B01985946C0F1400244
:10036000504600F0C7F906460D4650465946019AD8
:1003700000F0CFF910EB08006141002487EA115228
:1003800084EAE7731A4340D0009A62B3019A012AC3
:100390004FEA075215DC001B61EB02014FF00042EF
:1003A00002EA0752CDE90042001C41F580113246B5
:1003B0002B4600F006FA03B0BDE8F08F4046214618
:1003C000F9E7001B61EB0201001C41F580130018E6
:1003D0005B412018A2F5001747EB030140EAD570F6
:1003E000B6196D4111E06D084FEA360645EAC07551
:1003F0004FEA0752001B61EB0201001C41F580111E
:1004000049084FEA30000019514132462B4603B0EB
:10041000BDE8F04F00F0C6B900980122400000236B
:10042000D0EB020263EBE073009821464FEAE074E0
:10043000B8EB000061EB0401E9E783F000435BE700
:1004400081F0004158E72DE9FE4F81EA030404F0F2
:10045000004421F0004100944FF0000B23F00043D2
:1004600050EA01045ED052EA03045BD0C3F30A549D
:10047000C1F30A552C44A4F2F3340194A0FB0254B6
:10048000C1F3130141F48011C3F3130343F4801348
:1004900001FB024400FB034E840A970A44EA81549C
:1004A00047EA8357A4FB076802958D0A05FB078579
:1004B0004FEA932C04FB0C542705029D4FEA065883
:1004C00047EA1637B5EB08056EEB070C870E920E60
:1004D00047EA811742EA8312A7FB0201B6EB0B0140
:1004E00064EB00042B0D43EA0C335E1844EB1C5004
:1004F000DA465146E7FB0201C5F313044FEA0B331A
:1005000043EA14534FEA0432019C43EA0603A4F180
:100510000C040294009CCDE900B400F052F903B041
:10052000BDE8F08F00200146F9E72DE9F04D81EAA2
:10053000030404F0004B21F0004514464FF0000A7C
:1005400023F0004150EA050220D054EA01021DD0F8
:10055000C5F30A570246C5F31303C1F31300C1F3F1
:100560000A5640F4801543F48013A7EB0608101BCD
:10057000D64608F2FD3873EB050002D308F10108F6
:1005800001E092185B41B8F1000F03DA0020014648
:10059000BDE8F08D00204FF48011064684460EE041
:1005A000171B73EB050705D3121B63EB050306430B
:1005B0004CEA010C49084FEA300092185B4150EABE
:1005C0000107EDD152EA030012D082EA040083EA67
:1005D0000501084305D0101BAB4106D201220023C0
:1005E00006E000224FF0004302E06FF001025310DA
:1005F0001AEB06004CEB085110EB0A0041EB0B0123
:10060000BDE8F04D00F0CEB8C10F80EAE0700844BC
:10061000CA079623002100F097B80EB5C10F80EAF3
:10062000E0700844CA07002140F233438DE80E0011
:100630000A460B4600F0C5F803B000BD00F00042CA
:1006400020F00040C10DC0F3160040F400007F29E7
:1006500001DA00207047962903DCC1F19601C840F9
:1006600001E096398840002AF4D04042704720F0DB
:100670000040C10DC0F3160040F400007F2901DAEC
:1006800000207047962903DCC1F19601C8407047ED
:1006900096398840704700F0004230F000400AD0A0
:1006A000C10D01F56071C0F3160042EA0151C208A4
:1006B00040071143704700200146704701F0004396
:1006C00030B421F0004150EA010206D00A0DA2F533
:1006D0006072C1F31301002A02DC30BC00207047B5
:1006E000440F44EAC104C100E01830BC00EBC25022
:1006F00000F021B8202A04DB203A00FA02F10020A1
:1007000070479140C2F1200320FA03F3194390404F
:100710007047202A06DBCB17203A41FA02F043EA61
:10072000E07306E041FA02F3D040C2F120029140AA
:100730000843194670470029A8BF7047401C49006C
:1007400008BF20F00100704710B4B0FA80FC00FA36
:100750000CF050EA010404BF10BC704749B1CCF161
:10076000200421FA04F411FA0CF118BF01212143ED
:100770000843A3EB0C01CB1D4FEA00614FEA1020A8
:1007800042BF002010BC704700EBC350104400294A
:10079000A4BF10BC7047401C490008BF20F00100F6
:1007A00010BC704710B5141E73F1000408DA401C29
:1007B00041F1000192185B411A4301D120F0010080
:1007C00010BD2DE9F04D92469B4611B1B1FA81F270
:1007D00002E0B0FA80F220329046FFF78BFF044629
:1007E0000F4640EA0A0041EA0B0153465A460843C5
:1007F00013D0114653EA010019D0C8F14002504607
:1008000000F056F805460E46504659464246FFF758
:1008100071FF084305D0012004E020463946BDE8B9
:10082000F08D0020054346EAE0762C4337430A98D2
:100830006305E40AA0EB08000022FD0A44EA4754DD
:100840000A3002D500200146E9E701051019694187
:10085000DDE9084500196941BDE8F04DA2E770B532
:1008600021F0004303430CD0C1F30A550024D5EB1B
:10087000040564EB0403D617AD1AB34102DB002074
:10088000014670BD201841EB025170BD064C074D6A
:1008900006E0E06840F0010394E807009847103450
:1008A000AC42F6D3FFF748FCC8280008E828000847
:1008B000202A04DB203A21FA02F00021704721FAB5
:1008C00002F3D040C2F1200291400843194670471C
:1008D0002DE9F04D00231A461B1A8A4103DB002044
:1008E0000146BDE8F08DC1F30A52C1F3130141F492
:1008F00080154FF0000BD10702D100186D41521E38
:100900000027044640F2FF11384601EB620A3E46DA
:100910008046024600204FF48011FFF7C9FFC2193C
:100920007141BB1846EB0100B4EB030C75EB000CF6
:1009300004D3E41A65EB000517460E46241908F1A6
:1009400001006D4180463428E3DDF91946EB0600CD
:10095000091BA84103D24FF0FF32134601E00022E9
:1009600013461BEB070046EB0A51BDE8F04DFFF7BD
:1009700019BF00BFFEE7704710B5012000F03CF83A
:10098000F0B1104A1049114801F01AFC80B900F08A
:1009900025F90F4908800F4A0F49104800F0CDF89B
:1009A0000F4A1049104800F0F0F80A2001F0AAFAA6
:1009B000044A0549054801F003FC012000F016F83F
:1009C00010BD00003800002034000020300000205E
:1009D00000000020400000203E0000203C000020DD
:1009E0004600002044000020420000200149086029
:1009F0007047000014040140014600200022074B0C
:100A00001B6803EA0102054B14331B680B4013B14A
:100A10000AB1012000E000207047000000040140FE
:100A20002DE9F04102460025002600200023002485
:100A3000002791F803C00CF00F0591F803C00CF0EB
:100A4000100CBCF1000F03D091F802C04CEA050570
:100A500091F800C0BCF1000F31D0146800202BE0E9
:100A60004FF0010C0CFA00F3B1F800C00CEA0306D9
:100A70009E4220D183004FF00F0C0CFA03F7BC43C9
:100A800005FA03FC4CEA040491F803C0BCF1280FFA
:100A900006D14FF0010C0CFA00FCC2F814C00AE0B9
:100AA00091F803C0BCF1480F05D14FF0010C0CFACE
:100AB00000FCC2F810C0401C0828D1D31460B1F863
:100AC00000C0BCF1FF0F34DD546800202EE000F1BF
:100AD000080C4FF0010808FA0CF3B1F800C00CEA5A
:100AE00003069E4221D183004FF00F0C0CFA03F74E
:100AF000BC4305FA03FC4CEA040491F803C0BCF1C2
:100B0000280F05D100F1080C08FA0CF8C2F814807F
:100B100091F803C0BCF1480F07D100F1080C4FF069
:100B2000010808FA0CF8C2F81080401C0828CED33F
:100B30005460BDE8F08100BFFEE72DE9FC410446AA
:100B40000D4616466B4606223B21682000F0AAF9A6
:100B50000746BFB99DF801009DF8001040EA01204A
:100B600000B220809DF803009DF8021040EA0120A9
:100B700000B228809DF805009DF8041040EA01208D
:100B800000B230803846BDE8FC812DE9FC410446C6
:100B90000D4616466B4606224321682000F082F976
:100BA0000746BFB99DF801009DF8001040EA0120FA
:100BB00000B220809DF803009DF8021040EA012059
:100BC00000B228809DF805009DF8041040EA01203D
:100BD00000B230803846BDE8FC8100002DE9F84FB6
:100BE0006B4602224121682000F05CF99DF801006B
:100BF0009DF8001040EA01200FFA80FA5046FFF7F6
:100C00000CFD804600220B4BFFF78FFC06460A4A7C
:100C10000A4BFFF771FB0446FFF750FD8346084976
:100C20005846FFF7F9FA0446FFF708FD00B2BDE8A1
:100C3000F88F000000407540A4703D0AD743424041
:100C40000000C84210B500200E4908600E48006838
:100C500020F070400C4908600846006840F04050A1
:100C6000086000200949C1F89C0100F011F801203A
:100C70000449086000F00CF800200449C1F898010C
:100C800010BD000098812142000C014000802142EB
:100C900010B5022001F05CF910BD000010B5002075
:100CA0000E4908600E48006820F070400C4908604A
:100CB0000846006840F04050086001200949C1F82A
:100CC0009C01FFF7E5FF012004490860FFF7E0FF02
:100CD00000200449C1F8980110BD0000988121420C
:100CE000000C01400080214270B5054600241648E2
:100CF000006820F07040144908600846006840F021
:100D000000400860002614E0002010490860FFF74A
:100D1000BFFF01200E49C1F898016006040E0B4880
:100D20007C38006808B1601CC4B2FFF7B1FF701CCA
:100D3000C6B2082EE8DB15B9FFF7B0FF01E0FFF7F8
:100D400081FF204670BD0000000C014098812142C7
:100D50000080214270B504461248006820F07040BF
:100D6000104908600846006840F0405008600020C4
:100D70000D490860002512E0E0090B49091D0860D3
:100D80006006040E01200949C1F89801FFF780FFB1
:100D9000002005490860FFF77BFF681CC5B2082DDD
:100DA000EADB70BD000C01409881214200802142A5
:100DB00010B50E48006820F070400C4908600846E5
:100DC000006840F040500860012009490860094966
:100DD000C1F89801FFF75CFF002005490860FFF7A4
:100DE00057FF00200349C1F8980110BD000C0140D5
:100DF0009C8121420080214210B50E48006820F0FD
:100E000070400C4908600846006840F04050086097
:100E10000020094908600949C1F89C01FFF738FF23
:100E20000120054908600549C1F89C01FFF730FF22
:100E300010BD0000000C0140988121420080214239
:100E400010B500241448006820F070401249086072
:100E50000846006840F00040086001200F49086023
:100E6000FFF716FF01200E49C1F89801FFF710FFA8
:100E700007E0601CC4B2FA2C03DDFFF7BDFF0120C0
:100E800010BD0648803800680028F2D10349091FC8
:100E9000086000BFF4E70000000C01409C81214283
:100EA000008021422DE9F04106460F4614461D46BA
:100EB000FFF77EFF002141EA4601C8B2FFF74AFF73
:100EC000FFF7BEFF20B1FFF797FF0120BDE8F081DB
:100ED0003846FFF73FFFFFF7B3FFFFF769FF012138
:100EE00001EB4601C8B2FFF735FFFFF7A9FF0DE0A0
:100EF000012C04D10020FFF7F7FE287003E0012049
:100F0000FFF7F2FE2870601EC4B26D1C002CEFD1FA
:100F1000FFF772FF0020D9E72DE9F04105460E46A4
:100F200017469846FFF744FF002141EA4501C8B241
:100F3000FFF710FFFFF784FF20B1FFF75DFF0120EF
:100F4000BDE8F0813046FFF705FFFFF779FF002489
:100F50000CE018F80400FFF7FDFEFFF771FF18B171
:100F6000FFF74AFF0120EBE7601CC4B2BC42F0DB94
:100F7000FFF742FF0020E3E700BFFEE770470000F5
:100F800070B5002100230F22C47804B3154C2468E7
:100F900004F4E064C4F5E064210AC1F10403CA402A
:100FA000447804FA03F184781440214309010E4C7B
:100FB0000678A155047804F01F050124AC4005789B
:100FC0006D11AD0005F1E025C5F8004109E0047898
:100FD00004F01F050124AC40044D0678761145F855
:100FE000264070BD0CED00E000E400E080E100E090
:100FF0007047000029B1064A92690243044B9A6186
:1010000004E0034A92698243014B9A6170470000F1
:101010000010024030B500210022002400232D4D95
:101020006D6805F00C0121B1042905D0082923D1F0
:1010300005E0294D056022E0274D05601FE0254DA4
:101040006D6805F47012234D6D6805F48034022537
:1010500005EB92421CB9214D554305600BE01D4D37
:101060006D6805F400351DB11C4D5543056002E067
:10107000194D5543056002E0174D056000BF00BFE4
:10108000144D6D6805F0F0010909154D6B5C05689C
:10109000DD4045600F4D6D6805F4E061090A104DB3
:1010A0006B5C4568DD4085600A4D6D6805F46051F4
:1010B000C90A0B4D6B5C4568DD40C560054D6D6828
:1010C00005F44041890B074D6B5CC568B5FBF3F532
:1010D000056130BD0010024000127A0000093D0099
:1010E0005200002062000020704710B500F002F8A6
:1010F00010BD00000CB5002001900090334800683E
:1011000040F480303149086000BF3048006800F486
:10111000003000900198401C0190009818B9019887
:10112000B0F5A06FF1D12948006800F4003010B18B
:101130000120009001E0002000900098012843D198
:101140002348006840F01000214908600846006804
:1011500020F0030008600846006840F002000860C4
:101160001A4840681949486008464068486008467F
:10117000406840F4806048600846406820F47C1075
:1011800048600846406840F4E81048600846006837
:1011900040F08070086000BF0C48006800F00070EC
:1011A0000028F9D00948406820F00300074948604A
:1011B0000846406840F00200486000BF03484068AD
:1011C00000F00C000828F9D10CBD0000001002400E
:1011D00000200240042808D14FF0E021096941F0C5
:1011E00004014FF0E022116107E04FF0E0210969AE
:1011F00021F004014FF0E0221161704770470000B8
:1012000010B51348006840F0010011490860084615
:101210004068104908400E494860084600680E4979
:1012200008400B4908600846006820F480200860E8
:101230000846406820F4FE0048604FF41F008860B4
:10124000FFF753FF4FF000600449086010BD000035
:10125000001002400000FFF8FFFFF6FE08ED00E07E
:1012600070B50121880700F0ACF800287ED04D4809
:101270000078012806D14B480079012802D10520C9
:10128000494908704748007878B94648407860B9BD
:1012900044488078012808D14248C07828B941489C
:1012A000007910B90820404908703E48007880B99C
:1012B0003C48407801280CD13A48807848B93948F0
:1012C000C078012805D13748007910B9082036497F
:1012D00008703448007878B93248407801280BD13A
:1012E0003048807840B92F48C07828B92D48007917
:1012F00010B907202C4908702A48007880B929487D
:10130000407801280CD127488078012808D1254849
:10131000C07828B92348007910B9072022490870FD
:101320002048007878B91F48407860B91D48807817
:1013300048B91C48C078012805D11A48007910B96D
:101340000920194908701748007890B91548407865
:1013500078B91448807801280BD11248C078012848
:1013600007D11048007920B9092000E018E00E49A3
:1013700008700E490E480068FEF7F6FE0546FFF7B6
:1013800076F984B221460B4800F0AFF901218807B5
:1013900000F014F80848C06880F400500649C8609E
:1013A00070BD000028000020200000200000344311
:1013B000380000200038014000100140CA4302827A
:1013C000704730B50246002000230024158A05EA44
:1013D0000103958905EA010413B10CB1012000E075
:1013E000002030BD3FB504460D4641208DF8000079
:1013F00054208DF801002B208DF802003A208DF842
:101400000300019402950D208DF80C000A218DF83F
:101410000D101021684601F04FF93FBD10B540F2A4
:1014200025511D4800F09BF810B31B4800F052F9FD
:10143000C4B21A48008800F40040C8B917480088B0
:1014400000F4804060B10A2C03D0002013490880CA
:1014500020E01248008840F400401049088019E05C
:101460000D2C06D10D48008840F480400B490880BF
:1014700010E00A480088C0F30D0009490C540748E1
:101480000088401C0549088008460088C72801DDFF
:101490000020088010BD00000038014050000020EE
:1014A000A400002010B540F225511D4800F057F867
:1014B00010B31B4800F00EF9C4B21A48008800F4BB
:1014C0000040C8B91748008800F4804060B10A2C79
:1014D00003D000201349088020E01248008840F41F
:1014E00000401049088019E00D2C06D10D480088F5
:1014F00040F480400B49088010E00A480088C0F39F
:101500000D0009490C5407480088401C0549088013
:1015100008460088C72801DD0020088010BD0000B3
:101520000044004050000020A400002021B1828926
:1015300042F40052828104E082894DF6FF731A4022
:101540008281704702460020B1F5007F00D100BFC4
:1015500013880B400BB1012000E00020704770B5EC
:101560000246002400230025002040F66A16B142FE
:1015700000D100BFC1F3421501F01F03012606FA96
:1015800003F3012D02D19689334006E0022D02D1EA
:10159000168A334001E0968A33400C12012606FA7F
:1015A00004F41688344013B10CB1012000E000208F
:1015B00070BDF0B50346002400260025002040F64B
:1015C0006A17B94200D100BF1846C1F3421401F0B6
:1015D0001F06012707FA06F5012C01D10C3004E0A3
:1015E000022C01D1103000E014301AB107682F43EB
:1015F000076002E00768AF430760F0BD2DE9F047E0
:1016000086B005460E460024A24600BFA14600272C
:10161000B08900B100BF2F462C8A4CF6FF70044001
:10162000F08804432C82AC894EF6F3100440B08855
:1016300031890843718908430443AC81AC8A4FF671
:10164000FF400440B0890443AC8201A8FFF7E2FCEC
:101650001F48874202D1DDF810A001E0DDF80CA0A0
:10166000A88900F4004040B10AEBCA0000EB0A1060
:1016700031684900B0FBF1F807E00AEBCA0000EB63
:101680000A1031688900B0FBF1F86420B8FBF0F073
:1016900004012009642101FB1089A88900F400409D
:1016A00040B1322000EBC900B0FBF1F000F00700C0
:1016B000044308E0322000EB09106421B0FBF1F094
:1016C00000F00F0004432C8106B0BDE8F087000055
:1016D0000038014001468888C0F308007047C1F314
:1016E00008028280704700BFFEE72DE9F041054601
:1016F0000C46260AE7B231462846FFF7F0FF00BF46
:1017000080212846FFF71EFF0028F9D039462846D9
:10171000FFF7E5FF00BF80212846FFF713FF0028F1
:10172000F9D0BDE8F081490050EAC12018BF04207B
:101730004A0D18BF40F0010040F2FF72B2EB515F5A
:1017400008BF40F00200012808BF052070472DE9BE
:10175000F0414F1E00EBC7010446D1E900011546D8
:101760001E4637F006020DD02A463346FEF76BFEC2
:101770007F1E04EBC703D3E90023FEF7BDFD37F05E
:101780000602F1D1022F25D0042F13D0062F18BF47
:10179000BDE8F0812A463346FEF755FED4E90A2318
:1017A000FEF7AAFD2A463346FEF74DFED4E908238C
:1017B000FEF7A2FD2A463346FEF745FED4E906238E
:1017C000FEF79AFD2A463346FEF73DFED4E9042390
:1017D000FEF792FD2A463346FEF735FED4E9022392
:1017E000FEF78AFD2A463346FEF72DFED4E9002394
:1017F000BDE8F041FEF780BD0122FFF730B8FEF7EB
:101800007BBD0022134610461146FEF78EBE000037
:10181000024A00201107FFF722B8000001FDFFFF78
:1018200002E008C8121F08C1002AFAD170477047A9
:10183000002001E001C1121F002AFBD17047000007
:101840000149086070470000A00000202DE9F04D1C
:101850008D4F21F0004A86B005460C46BA452ADB7A
:10186000AAEB070028430AD08848824501DC1AD138
:10187000CDB106B02846BDE8F04DFFF7BDBF844AA4
:10188000844B2846FEF7DFFD07460E46824A834B0F
:1018900028462146FEF7D7FD06B03A463346BDE856
:1018A000F04DFEF729BD0120FFF7CAFF06B0BDE8E5
:1018B000F04DFFF7A6BF7A48824542DABAF1795F68
:1018C0000BDA2846FFF72FFF042808BFFFF7A0FF19
:1018D000284606B02146BDE8F08D2A460B46104644
:1018E000FEF7B1FD834602466E480E460B460621C2
:1018F0007844FFF72CFF5A463346FEF7A4FD804696
:1019000069488A465A46334604217844FFF71FFF48
:101910005A463346FEF797FD00223B46FEF7ECFCA5
:1019200002460B4640465146FEF7FFFD2A46234637
:10193000FEF789FD06B02A462346BDE8F04DFEF7C6
:10194000DBBC284624F0004100223D463B46FEF722
:1019500077FD4FF0FF32FEF782FF064602465348FE
:101960000F460B4606217844FFF7F1FE32463B4610
:10197000FEF769FDCDE900014D4832463B460421A2
:101980007844FFF7E4FE32463B46FEF75CFD00225A
:101990002B46FEF7B1FC834602913046394600F0F3
:1019A00065FE804643480D46504517DCDDE90001E1
:1019B0005A46029BFEF7B9FD42462B46FEF743FD11
:1019C00042462B46FEF798FC0122FEF748FF304ABC
:1019D000304BFEF732FD304A304B4CE04FF0000AFE
:1019E00052460B464046FEF787FCCDE903105246AF
:1019F0002B4610461946FEF726FD32463B46FEF7BB
:101A00001FFDDDE90332FEF790FD06460F46DDE9D6
:101A100000015A46029BFEF788FD83460091012291
:101A200030463946FEF71BFF194A1A4BFEF708FDF0
:101A300006460F46012240462946FEF710FF5A4649
:101A4000009BFEF700FD32463B46FEF7F6FC0646DD
:101A50000F46012250462946FEF701FF0E4DDFF8E2
:101A600058802A464346FEF7EBFC32463B46FEF7DB
:101A7000E7FC2A464346FEF7E3FC002CD8BF81F082
:101A8000004106B0BDE8F08D0000F03F0000F07F9F
:101A9000075C143326A6913C182D4454FB21F93FD2
:101AA0000000E03FE40E0000FA0E00006E0E0000A1
:101AB000840E00003333EF3FFB21E93F2DE9F84F5F
:101AC00004460D4621F0004000917349814211DC2B
:101AD0007249884201DC06D12CB120462946BDE876
:101AE000F84FFFF789BE6E48002DCCBF6D496E4997
:101AF000BDE8F88F6D49814211DD6D498142D8BF43
:101B00004FF0FF366DDD20462946FFF70CFE042816
:101B100008BFFFF77DFE20462946BDE8F88F6549DE
:101B2000654F25F00045814233DD6449814219DD6E
:101B3000002632464FF0804320462946FEF7DCFB64
:101B400080468A46012220462946FEF788FE00226A
:101B50003B46FEF772FC42465346FEF7E6FC04465F
:101B60000D463EE001260022BA463B462046294665
:101B7000FEF7C2FB80460F46002253462046294608
:101B8000FEF75BFC42463B46FEF7CFFC04460D46A3
:101B900027E04B4981421BDDDFF828A10226002205
:101BA000534620462946FEF74EFC00223B46FEF7F0
:101BB000A3FB80460F460022534620462946FEF7E7
:101BC0003CFC42463B46FEF7B0FC04460D4608E0AE
:101BD000032622462B4600203B49FEF7A6FC04467E
:101BE0000D4622462B4610461946FEF72CFC8B4626
:101BF000824602460B46FEF726FC0746024633485D
:101C000088460B4606217844FFF7A1FD52465B4605
:101C1000FEF719FC82462E488B463A46434605217C
:101C20007844FFF794FD3A464346FEF70CFC024623
:101C30000B46002E504659460CDAFEF75DFB224655
:101C40002B46FEF700FC01B022462B46BDE8F04FC4
:101C5000FEF7F6BBFEF750FB22462B46FEF7F3FBE2
:101C60001C4A7A4402EBC603D3E90023FEF7E5FBE6
:101C700022462B46FEF7E1FB174A7A4402EBC603E5
:101C8000D3E90023FEF7DCFB009A002AB8BF81F0FD
:101C90000041BDE8F88F0000000010440000F07F14
:101CA000182D4454FB21F93FFB21F9BF0000DC3F14
:101CB0000000203E0000F33F0000F03F0000E63F40
:101CC000008003400000F83F0000F0BF860C0000D9
:101CD000440C0000E20B0000AA0B00002DE9F04DBF
:101CE0009446CCF1000423F000464CEA0404524F21
:101CF00046EAD4749A46884621F00042BC4206D88F
:101D0000454240EA050442EAD474BC4204D9BDE825
:101D1000F04D6246FFF773BDAAF14055A5F17F650E
:101D200055EA0C040BD0022404EAAA74434DDFF8F0
:101D300010E144EAD87452EA000B04D00CE0BDE88C
:101D4000F04DFFF7BBBE002C14BF012CBDE8F08D99
:101D5000022C30D0032C32D056EA0C0B0AD0BE42F3
:101D600020D1BA4209D126F0804622F08042334683
:101D7000114617E000291ADB25E0DFF8C8B0FB4464
:101D8000002C04BFDBE90001BDE8F08D012C02BF8F
:101D9000DBE9000181F00041BDE8F08D022C0AD0A2
:101DA000032C0CD0BA4212D1B8F1000F0BDA234841
:101DB0002549BDE8F08D28462449BDE8F08D284628
:101DC0007146BDE8F08D1D482149BDE8F08D921B9C
:101DD00012153C2AC4BF19481D490EDCBAF1000F88
:101DE000BEBF12F13C0F0020014606DB6246FEF743
:101DF0009CFB21F00041FFF761FE002C08BFBDE80D
:101E0000F08D012C04BF81F00041BDE8F08D114A36
:101E1000114B022C07D0FEF710FB2A46BDE8F04D0F
:101E20000A4BFEF70ABBFEF708FB2A46BDE8F04D59
:101E3000064BFEF705BB00000000F07F182D445450
:101E4000FB2109C03E0B0000FB21F9BFFB2109402B
:101E5000FB21F93F075C143326A6A13C2DE9F04194
:101E60000446E07800F0C006E07800F03F056078B6
:101E700000F0010098B1EF102846E91705EB517109
:101E8000C910A5EBC101491C01F0FF080B4800680F
:101E900020B10A48414602683846904700BF607842
:101EA00000F0080030B10548406818B1B011034A8D
:101EB000516888470020BDE8F08100006C010020D7
:101EC00010B56FF00400FFF785F90A4800680A4969
:101ED000B0FBF1F0094908700846007800EB4001BA
:101EE000C1EBC0104FF6FF7101EAC0000449088041
:101EF00010BD00000C00002000127A0048000020F5
:101F00004A0000200146114A12884A434FF0E0235C
:101F10005A6100229A611A46126942F001021A615E
:101F200000BF4FF0E022106900F001021AB100F486
:101F30008032002AF5D04FF0E022126922F001022F
:101F40004FF0E0231A6100229A6170474A00002096
:101F50000146114A12784A434FF0E0235A610022A9
:101F60009A611A46126942F001021A6100BF4FF0ED
:101F7000E022106900F001021AB100F48032002A58
:101F8000F5D04FF0E022126922F001024FF0E02379
:101F90001A6100229A617047480000202DE9F04F35
:101FA0008DB00746884615469946DDE9166B002434
:101FB000002030806B49887B5A4605A900F012FA50
:101FC00018B1601E0DB0BDE8F08F6648807A00F051
:101FD0001400002867D09DF8140000069DF8151025
:101FE00040EA01409DF8161040EA01209DF81710C4
:101FF000084328609DF8180000069DF8191040EA73
:1020000001409DF81A1040EA01209DF81B1008437A
:1020100068609DF81C0000069DF81D1040EA014014
:102020009DF81E1040EA01209DF81F100843A8608B
:102030009DF8200000069DF8211040EA01409DF81F
:10204000221040EA01209DF823100843E86004F1C3
:102050001000C4B22868001401906868001402904F
:10206000A86800140390E8680014049001984043A5
:10207000029901FB0100039901FB0100049901FB96
:10208000010ABAF1706F02DBBAF1885F05DD00F07A
:1020900009FA00203080401E94E7B6F9000040F4B1
:1020A0008070308000BF2F48807A00F0400020B35D
:1020B00005A9601C085C095D40EA012000B2A8F88F
:1020C000000005A9E01C095C05AAA01C105C41EAFF
:1020D000002000B2A8F8020005A9601D095C201DBF
:1020E000105C41EA002000B2A8F80400A01DC4B2B0
:1020F000B6F9000040F0080030801A48408900F42A
:10210000C07008B305A9601C085C095D40EA0120A5
:1021100000B2388005A9E01C095C05AAA01C105C6F
:1021200041EA002000B2788005A9601D095C201DED
:10213000105C41EA002000B2B880A01DC4B2B6F91C
:10214000000040F0700030800648807A00F0030004
:1021500018B105A90819FFF781FE484600F02EF8CE
:1021600000202FE76C0100204FF000090024FFF74A
:1021700047F8FFF7A5FE4FF4E13000F0B3FA18E09E
:1021800021464846FFF72EF94FF47A70FFF7BAFE62
:102190004846FEF780FA0746064A074BFEF7ACF8BA
:1021A0000546FEF78BFA81464FF47A70FFF7AAFED8
:1021B000A41CE5E79A9999999999C93F704700003D
:1021C0002DE9F04F99B004460D4616464FF07E5764
:1021D0004FF000084FF000094FF0000A12A813A9B1
:1021E00018AB0EAACDE9001014A916A8FFF7D6FE69
:1021F00018B1012019B0BDE8F08FBDF84C0000F413
:10220000807000287ED00E98FEF7FEF983464FF0CE
:102210009D41FEF733F807460F98FEF7F5F9834620
:102220004FF09D41FEF72AF880461098FEF7ECF932
:1022300083464FF09D41FEF721F881461198FEF745
:10224000E3F983464FF09D41FEF718F88246394680
:102250004FF08040FDF7E0FF49460590FDF7DCFFB9
:10226000414607904FF04040FDF7D6FF514605909C
:10227000FDF7D2FF06900799FDF776FF8346FEF73C
:102280000AFACDE90801FFF7E1FA4FF06632544B44
:10229000CDE90A01FEF7D7F8CDE90C01FEF70EFAF9
:1022A000206049464FF08040FDF7B6FF4946029056
:1022B000FDF7B2FF414604904FF04040FDF7ACFF00
:1022C00041460290FDF7A8FF03900499FDF79EFF99
:1022D00083464FF07E51FDF747FF0590FEF7DBF98F
:1022E000CDE9080139464FF08040FDF795FF4146A2
:1022F0000390FDF791FF494604904FF08040FDF7B1
:102300008BFF00E068E051460390FDF785FF8346B0
:102310000499FDF729FF0590FEF7BDF9CDE9060107
:10232000DDE90823FFF7DAFC4FF066322C4BCDE9EC
:102330000A01FEF788F8CDE90C01FEF7BFF9286025
:1023400051465046FDF768FF494604904846FDF760
:1023500063FF414603904046FDF75EFF394601901A
:102360003846FDF759FF00900199FDF7FDFE0290F8
:102370000399FDF74BFF83460499FDF747FF05904E
:10238000FEF789F9CDE9080151463846FDF744FFCB
:10239000494604904046FDF73FFF03900499FDF73E
:1023A000E3FE4FF080410590FDF736FF8346FEF7D0
:1023B00072F9CDE90601DDE90823FFF78FFC4FF044
:1023C0006632074BCDE90A01FEF73DF8CDE90C0175
:1023D000FEF774F9306001E002200BE7002009E706
:1023E00066A64C40F8B504460F4616462C4890F8B1
:1023F000240010B94FF0FF30F8BD2948807A10B999
:102400004FF0FF30F8E7264A1268917A244A526862
:1024100010786B460222FEF745FD10B14FF0FF30F9
:10242000EAE79DF801009DF8001040EA0125A54269
:1024300003DA00203070401EDEE71948406840880B
:10244000B5EB600F17DD164A1268517C144A5268CA
:1024500010786B460122FEF725FD10B14FF0FF30DA
:10246000CAE79DF8000000F0100020B100F01AF853
:102470006FF00100C0E7E2B2094B1B68D97A084B44
:102480005B6818783B46FEF70DFD10B14FF0FF304A
:10249000B2E795FBF4F0401E30700020ACE700007E
:1024A0006800002008B57048807A10B94FF0FF30FE
:1024B00008BD002000906C4A1268D17B6A4A5268BD
:1024C00010786B460122FEF727FD10B14FF0FF3068
:1024D000EEE7654A12685179634A526810786B4694
:1024E0000122FEF719FD10B14FF0FF30E0E75E4A20
:1024F000126811795C4A526810786B460122FEF727
:102500000BFD10B14FF0FF30D2E7574890F8240090
:10251000002853D00C200090534A12681179524A77
:10252000526810786B460122FEF7F6FC10B14FF0AE
:10253000FF30BDE73220FFF7E5FCC02000904A489D
:10254000807A00F0010020B19DF8000040F02000EA
:102550000090454A12681179434A526810786B46D8
:102560000122FEF7D9FC10B14FF0FF30A0E73E4842
:10257000407C10B10220009001E0002000903A4A17
:102580001268D17B384A526810786B460122FEF7F8
:10259000C3FC10B14FF0FF308AE700200090324AB0
:1025A00012685179304A526810786B460122FEF762
:1025B000B3FC002855D04FF0FF3079E7042000909D
:1025C000294A12681179284A526810786B4601220C
:1025D000FEF7A2FC10B14FF0FF3069E72248807C83
:1025E00020B92148807A00F0010010B94020009005
:1025F00001E0602000901C4A126811791A4A526862
:1026000010786B460122FEF787FC10B14FF0FF30C7
:102610004EE73220FFF776FC1348407C10B10120D2
:10262000009001E0002000900F4A1268D17B0E4A12
:10263000526810786B460122FEF76EFC10B14FF025
:10264000FF3035E7084A12685179074A5268107816
:10265000054B10330122FEF75FFC10B14FF0FF3045
:1026600026E7002024E70000680000202DE9F04163
:1026700006460F46FEF72CF9041E0D4618BF012032
:10268000284320F00040C0F17F6000F1E040C00F1F
:102690000ED0301C18BF0120384320F00040C0F19C
:1026A0007F6000F1E040C00F04BF0120FFF7C8F8D1
:1026B00020462946BDE8F08110B502460BE000BF78
:1026C000074B1B8803F04003002BF9D01378044C10
:1026D000241D2380521C0B1EA1F10101EFD110BD5E
:1026E0000038014010B586B00446012144F20400D0
:1026F000FEF780FC4FF40070ADF8140003208DF855
:10270000160018208DF8170005A91C48FEF788F957
:102710004FF48060ADF8140004208DF8170005A96F
:102720001648FEF77DF925208DF8000003208DF86E
:1027300001008DF8020001208DF803006846FEF7C5
:102740001FFC01940020ADF80800ADF80A00ADF8B8
:102750000C00ADF810000C20ADF80E0001A90848DF
:10276000FEF74CFF012240F225510548FEF721FFFC
:1027700001210348FEF7DAFE06B010BD0008014053
:102780000038014075191A0C6A231B1C1F20727433
:10279000433B4138393A6B6C376F06246D6E7000DD
:1027A0006800000476005401F7FD0001830000007A
:1027B0000008000000010018320005000000204160
:1027C0000000D242295C0F3E9A99993E3333733F01
:1027D000295C0F3E00000000555555555555C53F25
:1027E0007D6FEB0312D6D4BF5544880E55C1C93F47
:1027F0003B8F68B52882A4BF88B20175E0EF493FDE
:1028000009F7FD0DE13D023F4B2D8A1C273A03C01D
:10281000C88A599CE52A004059018D1B6C06E6BF09
:1028200082922EB1C5B8B33F4FBB610567ACDD3FA7
:10283000182D4454FB21E93F9BF681D20B73EF3FE7
:10284000182D4454FB21F93FE2652F227F2B7A3C5F
:10285000075C143326A6813CBDCBF07A8807703C18
:10286000075C143326A6913CC4EB98999999C9BF8B
:10287000711623FEC671BCBF6D9A74AFF2B0B3BFC0
:102880009AFDDE522DDEADBF2F6C6A2C44B4A2BF80
:102890000D5555555555D53FFF8300922449C23FEC
:1028A0006E204CC5CD45B73F513DD0A0660DB13F20
:1028B000EB0D76244B7BA93F11DA22E33AAD903F32
:1028C0000000000000000000E828000800000020D0
:1028D000A4000000201800088C290008A400002093
:1028E000DC040000301800080000000000000000B8
:1028F0000000000000A24A040000000000000000E8
:10290000010203040607080900000000000000009F
:1029100000000000000000000000000000000000B7
:1029200000000000000000000000000000000000A7
:102930000000000000000000000000000000010294
:102940000304010203040607080902040608000044
:1029500084270008A02700080000000000000000F5
:102960000000000000000000000000000000000067
:102970000000000000000000AC270008010000007B
:0C29800001000000010000000000000049
:0400000508000131BD
:00000001FF
