:020000040800F2
:10000000D8070020ED010008D51A00088F16000857
:10001000D11A0008C914000873220008000000006B
:10002000000000000000000000000000411C00086B
:10003000CD14000800000000491B0008551D0008F1
:10004000070200080702000807020008070200086C
:100050000702000807020008D11400080702000880
:10006000070200080702000807020008070200084C
:10007000070200080702000807020008070200083C
:10008000070200080702000807020008070200082C
:10009000070200080702000807020008070200081C
:1000A000070200080702000807020008070200080C
:1000B000B91D00080702000807020008070200082F
:1000C00007020008070200080702000807020008EC
:1000D00007020008A91F00083120000807020008D5
:1000E00007020008070200080702000807020008CC
:1000F00007020008070200080702000807020008BC
:1001000007020008070200080702000807020008AB
:10011000070200080702000807020008070200089B
:10012000070200080702000807020008070200088B
:1001300000F002F800F04AF80AA090E8000C8244AF
:100140008344AAF10107DA4501D100F03FF8AFF28C
:10015000090EBAE80F0013F0010F18BFFB1A43F0A5
:10016000010318477844000098440000103A24BF67
:1001700078C878C1FAD8520724BF30C830C144BF0C
:1001800004680C607047000000230024002500264E
:10019000103A28BF78C1FBD8520728BF30C148BFEA
:1001A0000B607047662904F0AA80642900F04C8037
:1001B000002070471FB500F031FC04000020002132
:1001C00003F076F8E0601FBD10B510BD00F046FDED
:1001D0001146FFF7EFFF02F08FFD00F064FD03B45E
:1001E000FFF7F2FF03BC02F0E8F80000094880477F
:1001F00009480047FEE7FEE7FEE7FEE7FEE7FEE709
:10020000FEE7FEE7FEE7FEE704480549054A064B20
:1002100070470000591D000831010008D801002076
:10022000D8070020D8030020D80300207047000022
:100230000FB4044910B503AA029800F0ABFB10BC40
:100240005DF814FB4C0000202DE9F0410646002427
:1002500010687529314616A510D0AFF3008000282C
:1002600002DA404213A507E031688A0701D512A5DA
:1002700002E0490704D511A5012401E0AFF3008095
:1002800000210A2206F1240709E0B0FBF2FCB0FBD2
:10029000F2F302FB1C00303078541846491C002849
:1002A000F3D123462A463046BDE8F04100F00AB9B2
:1002B000000000002D0000002B00000020000000C6
:1002C0002DE9F05F894604464FF0000ADFF824B1BB
:1002D000FB44C0F820A02046E168884700287DD074
:1002E000252806D0D4E901219047206A401C2062CD
:1002F000F1E700255F462046E1688847202806464A
:1003000007DB312E05D2B81910F8200C08B10543CF
:10031000F1E7A80701D525F00405C4F81CA00027C3
:10032000C4F818A02A2E09D0304602F03FF838B39E
:1003300004EB8708303EC8F8186019E059F8041B30
:10034000204604EB87029161E1688847012F064649
:1003500018D1E069002820DA25F020051DE0D8F842
:10036000180000EB800006EB40003038C8F8180099
:100370002046E1688847064602F018F80028EED1CA
:10038000012F0AD02E2E08D12046E16888477F1C15
:100390000646022F45F02005C4DBA069002803DAD9
:1003A000404245F00105A061E80701D025F01005A5
:1003B000A6B1A6F14100192802D8203645F40065FF
:1003C0004A463146204625604D46FFF7EBFE60B1B8
:1003D000012807D0ED1D25F0070000E007E000F13F
:1003E000080978E705F1040975E730467AE7206ADD
:1003F000BDE8F09F7041000030B505460B462A4627
:1004000013F8014B12F8010B08B1A042F8D01CB14F
:10041000002802D06D1CF1E7284630BD032A40F2C7
:10042000308010F0030C00F0158011F8013BBCF196
:10043000020F624498BF11F801CB00F8013B38BFAE
:1004400011F8013BA2F1040298BF00F801CB38BFBC
:1004500000F8013B11F0030300F0AE82083AC0F04F
:10046000088051F8043B083A51F804CBA0E8081082
:10047000F5E7121D5CBF51F8043B40F8043BAFF3B5
:100480000080D20724BF11F8013B11F801CB48BF0F
:1004900011F8012B24BF00F8013B00F801CB48BF45
:1004A00000F8012B7047704770477047704710B5D0
:1004B00000F0B8FA006810BD10B5044600F0B2FABA
:1004C000046010BD2DE9F0470D469946924604465A
:1004D00000F124080168880604D5E06921F01001C4
:1004E000216000E00120A84201DD471B00E0002759
:1004F000A1697A1902EB0900081AA0612078C006E8
:1005000002D42046AFF30080002608E0D4E90121A0
:100510001AF806009047206A401C761C20624E455F
:10052000F4DB2078C0060AD52046AFF3008006E051
:10053000D4E9012130209047206A401C2062381EF7
:10054000A7F10107F4DC07E0D4E9012118F8050060
:100550009047206A401C2062281EA5F10105F3DCAB
:100560002046AFF300802078000602D50220BDE8C7
:10057000F0870120FBE770472DE9FF4F0C461E4630
:100580004FF0FF378BB0D2E90001DDF860800A90B0
:100590008A46C1F30A5505B93D46002108464FF089
:1005A0000000BAF1000F00F4400005DA00EB800013
:1005B0004FF4400101EA50004FEA9059B9F1010FA0
:1005C00000DDB9460A9850EA4A000ED044F61050B1
:1005D000A5F2FF3545432F14B8F1000F1ED0754228
:1005E000291E1EDDC9F100021CE0B8F1010F4FF019
:1005F000000001D0302103E0F24305E02154401C0B
:10060000B042FBDB30460022002121540B99C1F897
:100610000880C1E900200FB0BDE8F08FBD1B6D1C44
:10062000DEE74A4600DA694206A800F09DFA06AB0A
:1006300093E8070003AB83E8070050460A9900F0EF
:100640007BFB8DE80700A0F500501F380090039851
:10065000002D0ADD42F21F014A460844002303A987
:100660000390684600F0E4FD09E0A0F500504A461A
:100670001F38002303A90390684600F0EEFD8DE8C3
:1006800007000004000C03D04FF0FF30410800E0E9
:100690001046B8F1000F03D00022009215461EE06C
:1006A000751E05D400F0C2F9303262556D1EF9D5C1
:1006B000B3460122084302D000227F1C04E02078C8
:1006C000302801D100227F1E002A099784D01DE026
:1006D000112D07DA00F0AAF9303262556D1C50EA8C
:1006E0000102F5D1084302D00098C8B10EE0002104
:1006F000681E05E0235C625C63542254401E491C62
:100700008142F7DBAB46A81B401E0990002004F88D
:100710000B000B98099AC0F80880C0E9002B7AE713
:1007200011264FF0000857E72DE9F04F88460446A0
:10073000D21D22F0070191B0D1E90001CDE90A01F3
:1007400001F0B7FD02460B98C00F01D02D2007E045
:100750002068810701D52B2002E0202101EAC0009A
:10076000032A099001D0072A05DB034641462046AB
:1007700000F0BAF90BE12078800601D5E06900E0CD
:100780000620B8F1650F814606D0B8F1660F18D083
:10079000B8F1670F70D131E00020B9F1110F00906E
:1007A00001DB112301E009F101030AAA01A90CA848
:1007B000FFF7E2FEDDE90C70002609F10105834632
:1007C00047E001204B4600904FF000470AAA01A9DC
:1007D0000CA8FFF7D1FEDDE90DB00C995D460026AF
:1007E00010B909F101000D18B9EB050003D4C0F1EF
:1007F000FF3609F10105A5EB09002BE0B9F1010F66
:1008000001DA4FF001090020B9F1110F00904846BC
:1008100001DD112300E003460AAA01A90CA8FFF795
:10082000ABFEDDE90C704D460026834620780007BC
:100830000AD4AB4500DA5D4601A8012D04DD41195B
:1008400011F8011C302907D04F4502DA17F1040FC7
:1008500004DA012082460FE06D1EEEE7002F02DC75
:10086000ED1B3E4403E0781CA84200DD7D1CB81B54
:1008700000F1010A4FF000472078000703D4AA4591
:1008800001DB4FF0FF3A0021B7F1004F0DF14308B3
:100890008DF8431024D002202B23002F01DA7F4251
:1008A0002D230A21021EA0F1010000DC5FB197FB9D
:1008B000F1FC97FBF1F201FB1C7C17460CF1300CAC
:1008C00008F801CDEEE7A8F10100037021880905C1
:1008D00001D5452100E06521A0F1010800F8011CC7
:1008E00009980FA9A1EB0807FF1D00B101204119CC
:1008F00001EBEA70A1693844081A401EA061207813
:10090000C00602D42046AFF30080099828B1D4E98C
:1009100001219047206A401C20622078C00622D521
:100920002046AFF300801EE0002E04DBB34502DD5D
:1009300001A8805D00E03020D4E901219047206AC1
:10094000401C2062761CAAF101005FEA000A0AD16D
:1009500000F064F8C0680168405CD4E90121904768
:10096000206A401C2062281EA5F10105DCDC07E09E
:10097000D4E9012118F8010B9047206A401C20623D
:10098000381EA7F10107F3DC2046AFF300800320F7
:1009900011B041E6074B70B50D467B4400F091F86D
:1009A0000446284600F052F910B14FF0FF3070BDF8
:1009B000204670BD3F23000010B5203AC0F00B80E8
:1009C000B1E81850203AA0E81850B1E81850A0E853
:1009D0001850BFF4F5AF5FEA027C24BFB1E81850AD
:1009E000A0E8185044BF18C918C0BDE810405FEA1D
:1009F000827C24BF51F8043B40F8043B08BF704799
:100A0000D20728BF31F8023B48BF11F8012B28BF9D
:100A100020F8023B48BF00F8012B704700487047A0
:100A200098010020004870477801002030B5B0F1EF
:100A30000A024FEA900E71F100034EEA817EB0EB9C
:100A40000E0061EB91014FEA101E4EEA017E10EBA1
:100A50000E0041EB11114FEA102E4EEA016E10EB21
:100A60000E0041EB11214FEA104E4EEA014E10EB01
:100A70000E0041EB1141401841F100014FEAD00056
:100A800040EA41704FEAD10110EB80054FEA810442
:100A900044EA907444EB01046D1944EB0404521BC6
:100AA000A3414FF0000348BF0A3200D530BD401CBF
:100AB00041F1000130BD000001694A1C0261087863
:100AC000704700B58FB0CDE901310021059105498E
:100AD0007944CDE9031011466846FFF7F1FB0FB0EA
:100AE00000BD0000E5FFFFFF2DE9F0411F46044671
:100AF00003260168072A01F4006004DB08B116A58B
:100B000005E016A503E008B115A500E015A521F044
:100B100010002060A069C01EA0610FB1401EA0613E
:100B20002046AFF300804FB1D4E901213846904709
:100B3000206A401C2062C01C206206E0206AFAE79E
:100B4000D4E9012115F8010B9047761EF8D2204612
:100B5000AFF30080BDE8F0814E414E006E616E0043
:100B6000494E4600696E66002DE9F04781461646FB
:100B70008AB0354878440DC88DE80D003248784475
:100B8000801C03AC0DC884E80D0041F69B3008447E
:100B9000372190FBF1F290FBF1F5A5F1800501FB07
:100BA00012041B3C02D56442012000E00020DFF863
:100BB00098A080460027FA44AAF1BE0A0EE0E0079A
:100BC0000AD03246684607EB470101230AEB810150
:100BD00000F043FB8DE8070064107F1C002CEED171
:100BE000194F7F44AE3F19E0E80715D007EB04101A
:100BF0000DF1180A90E80E008AE80E00C068F04275
:100C000001D1981908903246012306A903A800F0E3
:100C100024FB03AB83E807006D10641C002DE3D1B7
:100C20004FF0010332466946B8F1000F03A802D025
:100C300000F0FEFA01E000F010FBC9E90001C9F87C
:100C400008200AB0BDE8F0874C3A0000007B00F0B5
:100C50008000704700487047780100207546FFF714
:100C6000F9FFAE4605006946534620F00700854669
:100C700018B020B5FFF7C8FABDE820404FF00006D5
:100C80004FF000074FF000084FF0000B21F0070174
:100C9000AC46ACE8C009ACE8C009ACE8C009ACE8B7
:100CA000C0098D46704710B50446AFF3008020465A
:100CB000BDE81040FFF793BA4FF0013C50F8042B09
:100CC00051F8043B9A4221D1A2EB0C03934313EA5F
:100CD000CC1317D150F8042B51F8043B9A4215D18C
:100CE000A2EB0C03934313EACC130BD150F8042B63
:100CF00051F8043B9A4209D1A2EB0C03934313EA47
:100D0000CC13DBD04FF00000704700BFD01A01BAFF
:100D1000B1FA81F101F0180122FA01F0CB40C1F1E2
:100D20002001DBB2C0B2C01A2CFA01F3D11A9143F0
:100D300011EAC311E6D170475FEA400C08BF91F099
:100D4000000F4FEA8C234FEAC12243EA51514FEA88
:100D50001C5018BF00F5F0404FEA300018BF41F0BA
:100D600000415FEA6C5C00F02980BCF1FF3F08BFE6
:100D700040F080407047130C06BF12044FF0100C77
:100D80004FF0000C130E04BF12020CF1080C130FED
:100D900004BF12010CF1040C930F04BF92000CF17C
:100DA000020CD30F04BF52000CF1010C11464FF09E
:100DB0000002A0F11F00A0EB0C00704711F0004FE3
:100DC00008BF704731F000413FF4D5AF0B0C06BFB0
:100DD00009044FF0100C4FF0000C0B0E04BF090279
:100DE0000CF1080C0B0F04BF09010CF1040C8B0F64
:100DF00004BF89000CF1020CCB0F04BF49000CF1B9
:100E0000010CCCF12003A0EB0C0022FA03F302FA50
:100E10000CF241EA030100F10100704720F07F4C21
:100E200080EA030023F07F47ACEB070303F57C5314
:100E300000F0004003F1FF032DE980494FEA154B14
:100E400009B44FEA144325EA0B4E24EA03480FF293
:100E5000042606EB132749083E785FEA320203FBBB
:100E60000667C7F5000707FB06F64FEA54374FEA57
:100E7000D64606F1020607FB066CCCF1005C4FEA91
:100E80001C472CEA074C07FB06F40CFB06F504EBA9
:100E900015464FEA961634BF00204FF000404FEA47
:100EA000D13706FB07FC4FEA1C4C0CFB0BF7D21B9F
:100EB00003FB0CF761EB07010CFB0EF7B0EB0740EF
:100EC00072EB17420CFB08F734BFA2EB0742B2EB00
:100ED000074261EB17414FEA0C444FEA910706FBCA
:100EE00007FC4FEA1C4C0CFB0BF7B0EBC74072EB56
:100EF000573203FB0CF734BFA2EBC742B2EBC74239
:100F000061EB57310CFB0EF7B0EBC70072EB577279
:100F10000CFB08F734BFA2EBC702B2EBC70261EBD0
:100F20005771039F4FEA816141EA921104EBCC04AF
:100F30004FEAD1374FEA826206FB07FC42EA901281
:100F40004FEA80604FEA1C4C0CFB0BF7D21B03FBF3
:100F50000CF761EB07010CFB0EF7B0EB074072EBEF
:100F600017420CFB08F734BFA2EB0742B2EB074273
:100F700061EB17414FEA8C554FEA910704EB9C2433
:100F800006FB07FC4FEA1C4C0CFB0BF7B0EBC74011
:100F900072EB573203FB0CF734BFA2EBC742B2EB44
:100FA000C74261EB57310CFB0EF7B0EBC70072EB99
:100FB00057720CFB08F734BFA2EBC702B2EBC702B3
:100FC00061EB577115EB4C254FEA816141EA9211B3
:100FD0004FEA82624FEAD13742EA901206FB07FCE1
:100FE00044F100044FEA80604FEA1C4C0CFB0BF705
:100FF000D21B03FB0CF761EB07010CFB0EF7B0EB08
:10100000074072EB17420CFB08F734BFA2EB074214
:10101000B2EB074261EB174115EB1C154FEA81312A
:1010200041EA92414FEA823242EA90424FEA8030EE
:101030004FEA0C7644F1000448EA03434EEA0B48B9
:101040004FF0000EB2EB080C71EB030724BF6246B1
:1010500039464EEB0E0E4FF0000B0018524149413D
:101060004BEB0B0BB2EB080C71EB03077BF1000BA6
:1010700024BF624639464EEB0E0E4FF0000B0018AF
:10108000524149414BEB0B0BB2EB080C71EB0307E0
:101090007BF1000B24BF624639464EEB0E0E51EA3F
:1010A000020718BF46F0010616EB0E7655F1000256
:1010B00054F1000103D5BDE88901BDE80088BDE811
:1010C0008901BDE80048B619524141EB0101A3F185
:1010D0000103704780807F7E7D7C7B7A797877768C
:1010E00076757473727171706F6E6E6D6C6C6B6A05
:1010F0006A696868676666656464636362616160A3
:10110000605F5F5E5E5D5D5C5C5B5B5A5A5959581F
:101110005857575656555555545453535252525189
:10112000515050504F4F4F4E4E4D4D4D4C4C4C4BDF
:101130004B4B4A4A4A494949484848474747474626
:101140004646454545444444444343434342424262
:1011500042414141002B9C4630D477002BD01CB536
:101160004FEA370703B44FF010004FF01001BAF107
:10117000000F06D0BCF1000FDCBF40F0080040F0CB
:1011800008014FF000000FBCBDE810400BF1010B4F
:10119000BBF1010F08BF5FEA170722BF12F101027E
:1011A00011F101014FF0004143F1000300F0004054
:1011B00043EA00007047F9D35708D0E746EA0646ED
:1011C00013F1400F4FEA16461FDD13F1200FDFBF6A
:1011D00016430A46002120335B42BED0C3F12007EC
:1011E00046EA064602FA07F74FEA164646EA0706B7
:1011F000C3F1200722FA03F201FA07F721FA03F1FB
:101200004FF0000342EA0702A7E746EA020646EA71
:1012100006464FEA164646EA0106BCBF46EA0646BF
:10122000360C4FF000034FF000024FF0000194E73E
:101230002DE9804C9A46934670B491E8380007C86F
:1012400031EA400C48BF34EA430C03D5FFF7E6FD12
:10125000FFF780FFF0BCBDE8008C2DE9804C9A467A
:10126000934670B491E8380007C810F0804F08BF6B
:1012700013F0804F03D100F005F8FFF76BFFF0BCCF
:10128000BDE8008C20F07F4780EA030023F07F4C0C
:1012900007EB0C03A3F57C5300F00040A3F1FE0321
:1012A00092F0000F00F0B38095F0000F00F077800F
:1012B0002DE901494FEA11404FEA144621EA00485E
:1012C00000FB06FC24EA064708FB06F607FB08F8C5
:1012D00000FB07F718EB06484CEB164C4FEA124B95
:1012E00018EB07484FEA15464CEB174022EA0B4E25
:1012F0000BFB06FC25EA06470EFB06F607FB0EFE77
:101300000BFB07F71EEB064E4CEB164C4FF000069E
:101310001EEB074E4CEB174B18EB0B0840F100008F
:1013200018EB0E0B58EB000840F100008F1A4FF03D
:1013300000013CBFC943661B14BFB5EB040C002180
:101340003CBFC943F61B4FEA17444EEA8E0E27EA0C
:1013500004454FEA1C4704FB07622CEA074C05FBD7
:1013600007F70CFB05F604FB0CFC16EB074642EBFB
:10137000174216EB0C4642EB1C421BEB060658EBE1
:101380000202414146EA9E0601D5BDE80189B6192F
:10139000524141EB0101A3F10103BDE801894FEA8C
:1013A00014454FEA114724EA054621EA074C05FB9C
:1013B00007F406FB07F70CFB06F105FB0CFC11EB31
:1013C000074144EB17444FEA124711EB0C4144EB41
:1013D0001C4422EA074C05FB07F206FB07F70CFB4F
:1013E00006F605FB0CFC16EB074642EB174216EB24
:1013F0000C4642EB1C456A1854F1000148BF704787
:10140000B619524141EB0101A3F10103704795F078
:10141000000F37D04FEA11424FEA144721EA024643
:1014200024EA074C02FB07F106FB07F70CFB06F466
:1014300002FB0CFC14EB074441EB17414FEA154744
:1014400014EB0C4441EB1C4125EA074C02FB07F569
:1014500006FB07F70CFB06F602FB0CFC16EB074637
:1014600045EB174516EB0C4645EB1C42121951F1A2
:10147000000148BF7047B619524141EB0101A3F189
:10148000010370474FEA14454FEA114724EA054625
:1014900021EA074C05FB07F106FB07F70CFB06F2F8
:1014A0004FF0000605FB0CFC12EB074241EB174125
:1014B00012EB0C4251EB1C4148BF7047921841EBB4
:1014C0000101A3F10103704700BFFEE77047000070
:1014D00010B5012000F03CF8F0B1104A1049114855
:1014E00001F01AFC80B900F025F90F4908800F4A75
:1014F0000F49104800F0CDF80F4A1049104800F08D
:10150000F0F80A2001F0B8FA044A0549054801F04C
:1015100003FC012000F016F810BD00003800002088
:101520003400002030000020000000204000002097
:101530003E0000203C000020460000204400002027
:101540004200002001490860704700001404014077
:10155000014600200022074B1B6803EA0102054BED
:1015600014331B680B4013B10AB1012000E00020C6
:1015700070470000000401402DE9F04102460025BB
:101580000026002000230024002791F803C00CF05F
:101590000F0591F803C00CF0100CBCF1000F03D044
:1015A00091F802C04CEA050591F800C0BCF1000FAB
:1015B00031D0146800202BE04FF0010C0CFA00F33E
:1015C000B1F800C00CEA03069E4220D183004FF020
:1015D0000F0C0CFA03F7BC4305FA03FC4CEA0404B5
:1015E00091F803C0BCF1280F06D14FF0010C0CFAA2
:1015F00000FCC2F814C00AE091F803C0BCF1480F27
:1016000005D14FF0010C0CFA00FCC2F810C0401CD0
:101610000828D1D31460B1F800C0BCF1FF0F34DD4D
:10162000546800202EE000F1080C4FF0010808FA81
:101630000CF3B1F800C00CEA03069E4221D18300EE
:101640004FF00F0C0CFA03F7BC4305FA03FC4CEA0D
:10165000040491F803C0BCF1280F05D100F1080C77
:1016600008FA0CF8C2F8148091F803C0BCF1480FD6
:1016700007D100F1080C4FF0010808FA0CF8C2F885
:101680001080401C0828CED35460BDE8F08100BF14
:10169000FEE72DE9FC4104460D4616466B46062240
:1016A0003B21682000F0AAF90746BFB99DF8010068
:1016B0009DF8001040EA012000B220809DF8030050
:1016C0009DF8021040EA012000B228809DF8050034
:1016D0009DF8041040EA012000B230803846BDE891
:1016E000FC812DE9FC4104460D4616466B46062258
:1016F0004321682000F082F90746BFB99DF8010038
:101700009DF8001040EA012000B220809DF80300FF
:101710009DF8021040EA012000B228809DF80500E3
:101720009DF8041040EA012000B230803846BDE840
:10173000FC8100002DE9F84F6B4602224121682010
:1017400000F05CF99DF801009DF8001040EA0120CE
:101750000FFA80FA504601F0FBFF804600220B4B47
:1017600001F09EFE06460A4A0A4B01F0E9FD0446D6
:1017700001F0B4FD83460849584602F07FFC044658
:1017800002F028FC00B2BDE8F88F00000040754070
:10179000A4703D0AD74342400000C84210B5002063
:1017A0000E4908600E48006820F070400C4908603F
:1017B0000846006840F04050086000200949C1F820
:1017C0009C0100F011F801200449086000F00CF8B9
:1017D00000200449C1F8980110BD00009881214201
:1017E000000C01400080214210B5022001F06AF98E
:1017F00010BD000010B500200E4908600E480068BA
:1018000020F070400C4908600846006840F04050E5
:10181000086001200949C1F89C01FFF7E5FF01209C
:1018200004490860FFF7E0FF00200449C1F898016F
:1018300010BD000098812142000C0140008021422F
:1018400070B5054600241648006820F07040144921
:1018500008600846006840F000400860002614E078
:10186000002010490860FFF7BFFF01200E49C1F8B2
:1018700098016006040E0B487C38006808B1601CB3
:10188000C4B2FFF7B1FF701CC6B2082EE8DB15B971
:10189000FFF7B0FF01E0FFF781FF204670BD0000B9
:1018A000000C0140988121420080214270B504461D
:1018B0001248006820F0704010490860084600682F
:1018C00040F04050086000200D490860002512E0FB
:1018D000E0090B49091D08606006040E0120094952
:1018E000C1F89801FFF780FF002005490860FFF765
:1018F0007BFF681CC5B2082DEADB70BD000C0140FF
:10190000988121420080214210B50E48006820F0E5
:1019100070400C4908600846006840F0405008607C
:101920000120094908600949C1F89801FFF75CFFE7
:10193000002005490860FFF757FF00200349C1F860
:10194000980110BD000C01409C8121420080214281
:1019500010B50E48006820F070400C490860084639
:10196000006840F0405008600020094908600949BB
:10197000C1F89C01FFF738FF0120054908600549BF
:10198000C1F89C01FFF730FF10BD0000000C0140C2
:10199000988121420080214210B50024144800683B
:1019A00020F07040124908600846006840F000408E
:1019B000086001200F490860FFF716FF01200E495B
:1019C000C1F89801FFF710FF07E0601CC4B2FA2CC1
:1019D00003DDFFF7BDFF012010BD06488038006819
:1019E0000028F2D10349091F086000BFF4E7000096
:1019F000000C01409C812142008021422DE9F041F0
:101A000006460F4614461D46FFF77EFF002141EAB9
:101A10004601C8B2FFF74AFFFFF7BEFF20B1FFF74C
:101A200097FF0120BDE8F0813846FFF73FFFFFF741
:101A3000B3FFFFF769FF012101EB4601C8B2FFF7D1
:101A400035FFFFF7A9FF0DE0012C04D10020FFF7BF
:101A5000F7FE287003E00120FFF7F2FE2870601EF9
:101A6000C4B26D1C002CEFD1FFF772FF0020D9E744
:101A70002DE9F04105460E4617469846FFF744FF0C
:101A8000002141EA4501C8B2FFF710FFFFF784FFCC
:101A900020B1FFF75DFF0120BDE8F0813046FFF780
:101AA00005FFFFF779FF00240CE018F80400FFF7AA
:101AB000FDFEFFF771FF18B1FFF74AFF0120EBE7CA
:101AC000601CC4B2BC42F0DBFFF742FF0020E3E73A
:101AD00000BFFEE77047000070B5002100230F2211
:101AE000C47804B3154C246804F4E064C4F5E064DD
:101AF000210AC1F10403CA40447804FA03F184784E
:101B00001440214309010E4C0678A155047804F0D5
:101B10001F050124AC4005786D11AD0005F1E025ED
:101B2000C5F8004109E0047804F01F050124AC4029
:101B3000044D0678761145F8264070BD0CED00E0A6
:101B400000E400E080E100E07047000029B1064AAF
:101B500092690243044B9A6104E0034A926982430A
:101B6000014B9A61704700000010024030B500211F
:101B70000022002400232D4D6D6805F00C0121B1D9
:101B8000042905D0082923D105E0294D056022E06C
:101B9000274D05601FE0254D6D6805F47012234D3B
:101BA0006D6805F48034022505EB92421CB9214D85
:101BB000554305600BE01D4D6D6805F400351DB102
:101BC0001C4D5543056002E0194D5543056002E088
:101BD000174D056000BF00BF144D6D6805F0F001A2
:101BE0000909154D6B5C0568DD4045600F4D6D685A
:101BF00005F4E061090A104D6B5C4568DD408560C5
:101C00000A4D6D6805F46051C90A0B4D6B5C45685F
:101C1000DD40C560054D6D6805F44041890B074DF9
:101C20006B5CC568B5FBF3F5056130BD0010024083
:101C300000127A0000093D005200002062000020DE
:101C4000704710B500F002F810BD00000CB5002080
:101C5000019000903348006840F4803031490860BA
:101C600000BF3048006800F4003000900198401C2C
:101C70000190009818B90198B0F5A06FF1D12948EA
:101C8000006800F4003010B10120009001E0002055
:101C900000900098012843D12348006840F01000CC
:101CA000214908600846006820F0030008600846E3
:101CB000006840F0020008601A484068194948600E
:101CC0000846406848600846406840F480604860C4
:101CD0000846406820F47C1048600846406840F49C
:101CE000E81048600846006840F08070086000BF57
:101CF0000C48006800F000700028F9D009484068DE
:101D000020F00300074948600846406840F00200A0
:101D1000486000BF0348406800F00C000828F9D173
:101D20000CBD00000010024000200240042808D131
:101D30004FF0E021096941F004014FF0E022116108
:101D400007E04FF0E021096921F004014FF0E022A3
:101D5000116170477047000010B51348006840F0EB
:101D600001001149086008464068104908400E49C2
:101D70004860084600680E4908400B49086008465C
:101D8000006820F4802008600846406820F4FE00C7
:101D900048604FF41F008860FFF753FF4FF000606A
:101DA0000449086010BD0000001002400000FFF868
:101DB000FFFFF6FE08ED00E070B50121880700F096
:101DC000ACF800287ED04D480078012806D14B4859
:101DD0000079012802D10520494908704748007858
:101DE00078B94648407860B944488078012808D1DD
:101DF0004248C07828B94148007910B908204049C4
:101E000008703E48007880B93C48407801280CD1E1
:101E10003A48807848B93948C078012805D1374810
:101E2000007910B90820364908703448007878B92C
:101E30003248407801280BD13048807840B92F488B
:101E4000C07828B92D48007910B907202C490870AE
:101E50002A48007880B92948407801280CD12748C1
:101E60008078012808D12548C07828B9234800790E
:101E700010B90720224908702048007878B91F4817
:101E8000407860B91D48807848B91C48C07801285E
:101E900005D11A48007910B9092019490870174866
:101EA000007890B91548407878B9144880780128AE
:101EB0000BD11248C078012807D11048007920B909
:101EC000092000E018E00E4908700E490E4800682D
:101ED00001F05CFF054602F099F884B221460B48F8
:101EE00000F0C9F90121880700F014F80848C0681B
:101EF00080F400500649C86070BD00002800002032
:101F00002000002000003443380000200038014049
:101F100000100140CA430282704730B502460020DB
:101F200000230024158A05EA0103958905EA0104C6
:101F300013B10CB1012000E0002030BD30B585B0F8
:101F40000F48008800F40040C0B10EA10F48FEF712
:101F500053FA80B110220D4901A8FEF75FFA0298EA
:101F600001F0E8FE0446039822460B46009008A0C4
:101F7000FEF75EF900BF00200149088005B030BDC2
:101F80005000002041542B3A00000000A000002027
:101F9000616E676C653A25662020202076616C753D
:101FA000653A2564200D0A0010B540F225511D4800
:101FB00000F09BF810B31B4800F052F9C4B21A4865
:101FC000008800F40040C8B91748008800F4804039
:101FD00060B10A2C03D000201349088020E0124889
:101FE000008840F400401049088019E00D2C06D10B
:101FF0000D48008840F480400B49088010E00A48F2
:102000000088C0F30D0009490C5407480088401CA3
:102010000549088008460088C72801DD002008809F
:1020200010BD00000038014050000020A00000203A
:1020300010B540F225511D4800F057F810B31B4869
:1020400000F00EF9C4B21A48008800F40040C8B984
:102050001748008800F4804060B10A2C03D00020AB
:102060001349088020E01248008840F400401049DD
:10207000088019E00D2C06D10D48008840F48040FE
:102080000B49088010E00A480088C0F30D00094998
:102090000C5407480088401C054908800846008801
:1020A000C72801DD0020088010BD0000004400406A
:1020B00050000020A000002021B1828942F400528B
:1020C000828104E082894DF6FF731A408281704755
:1020D00002460020B1F5007F00D100BF13880B40FD
:1020E0000BB1012000E00020704770B502460024CB
:1020F00000230025002040F66A16B14200D100BF3F
:10210000C1F3421501F01F03012606FA03F3012D66
:1021100002D19689334006E0022D02D1168A33405F
:1021200001E0968A33400C12012606FA04F4168860
:10213000344013B10CB1012000E0002070BDF0B5B7
:102140000346002400260025002040F66A17B94205
:1021500000D100BF1846C1F3421401F01F06012749
:1021600007FA06F5012C01D10C3004E0022C01D154
:10217000103000E014301AB107682F43076002E006
:102180000768AF430760F0BD2DE9F04786B005460C
:102190000E460024A24600BFA1460027B08900B128
:1021A00000BF2F462C8A4CF6FF700440F088044391
:1021B0002C82AC894EF6F3100440B0883189084374
:1021C000718908430443AC81AC8A4FF6FF40044058
:1021D000B0890443AC8201A8FFF7C8FC1F488742BE
:1021E00002D1DDF810A001E0DDF80CA0A88900F410
:1021F000004040B10AEBCA0000EB0A103168490008
:10220000B0FBF1F807E00AEBCA0000EB0A103168F6
:102210008900B0FBF1F86420B8FBF0F0040120095C
:10222000642101FB1089A88900F4004040B13220EC
:1022300000EBC900B0FBF1F000F00700044308E038
:10224000322000EB09106421B0FBF1F000F00F0028
:1022500004432C8106B0BDE8F0870000003801403F
:1022600001468888C0F308007047C1F308028280E5
:10227000704700BFFEE72DE9F04105460C46260AEF
:10228000E7B231462846FFF7F0FF00BF802128461D
:10229000FFF71EFF0028F9D039462846FFF7E5FF73
:1022A00000BF80212846FFF713FF0028F9D0BDE8C2
:1022B000F081490050EAC12018BF04204A0D18BF20
:1022C00040F0010040F2FF72B2EB515F08BF40F0F6
:1022D0000200012808BF052070472DE9F0414F1E7C
:1022E00000EBC7010446D1E9000115461E4637F050
:1022F00006020DD02A46334601F042FA7F1E04EB57
:10230000C703D3E9002301F01BF837F00602F1D12F
:10231000022F25D0042F13D0062F18BFBDE8F0815F
:102320002A46334601F02CFAD4E90A2301F008F8D2
:102330002A46334601F024FAD4E9082301F000F8D4
:102340002A46334601F01CFAD4E9062300F0F8FFD0
:102350002A46334601F014FAD4E9042300F0F0FFD2
:102360002A46334601F00CFAD4E9022300F0E8FFD4
:102370002A46334601F004FAD4E90023BDE8F041CF
:1023800000F0DEBF012201F0EEBF00F0D9BF002255
:1023900013461046114601F083B80000024A00209F
:1023A000110701F0E0BF000001FDFFFF30380A28EF
:1023B00001D2012070470020704700BF7047000025
:1023C0002DE9F04D8D4F21F0004A86B005460C46B0
:1023D000BA452ADBAAEB070028430AD08848824581
:1023E00001DC1AD1CDB106B02846BDE8F04DFFF7AB
:1023F000C9BF844A844B284601F0C2F907460E46FD
:10240000824A834B2846214601F0BAF906B03A4683
:102410003346BDE8F04D00F093BF0120FEF74CF8C5
:1024200006B0BDE8F04DFFF7B2BF7A48824542DA08
:10243000BAF1795F0BDA2846FFF73BFF042808BFA3
:10244000FFF7ACFF284606B02146BDE8F08D2A46CE
:102450000B46104601F094F9834602466E480E463C
:102460000B4606217844FFF738FF5A46334601F001
:1024700087F9804669488A465A463346042178449B
:10248000FFF72BFF5A46334601F07AF900223B460C
:1024900000F056FF02460B464046514601F000F858
:1024A0002A46234601F06CF906B02A462346BDE8C9
:1024B000F04D00F045BF284624F0004100223D4683
:1024C0003B4601F05BFA4FF0FF3201F04CFF06464D
:1024D000024653480F460B4606217844FFF7FDFE9F
:1024E00032463B4601F04CF9CDE900014D483246F9
:1024F0003B4604217844FFF7F0FE32463B4601F0AC
:102500003FF900222B4600F01BFF83460291304624
:10251000394600F057FE804643480D46504517DCCB
:10252000DDE900015A46029B00F0BAFF42462B4605
:1025300001F026F942462B4600F002FF012201F08D
:1025400012FF304A304B01F00BFB304A304B4CE06D
:102550004FF0000A52460B46404600F0F1FECDE92E
:10256000031052462B461046194601F009F932462F
:102570003B4601F003FADDE9033200F091FF064625
:102580000F46DDE900015A46029B00F089FF8346B1
:10259000009101223046394601F0E5FE194A1A4BF6
:1025A00001F0ECF906460F4601224046294601F0AB
:1025B000DAFE5A46009B01F0E3F832463B4601F052
:1025C000CFFA06460F4601225046294601F0CBFEBF
:1025D0000E4DDFF858802A46434601F0CFF93246C7
:1025E0003B4601F0CBF92A46434601F0C7F9002CDF
:1025F000D8BF81F0004106B0BDE8F08D0000F03F8B
:102600000000F07F075C143326A6913C182D44543B
:10261000FB21F93F0000E03FF01F00000620000012
:102620007A1F0000901F00003333EF3FFB21E93F8A
:102630002DE9F84F04460D4621F000400091734902
:10264000814211DC7249884201DC06D12CB120465E
:102650002946BDE8F84FFFF795BE6E48002DCCBF68
:102660006D496E49BDE8F88F6D49814211DD6D49B4
:102670008142D8BF4FF0FF366DDD20462946FFF777
:1026800018FE042808BFFFF789FE20462946BDE84A
:10269000F88F6549654F25F00045814233DD644977
:1026A000814219DD002632464FF0804320462946FC
:1026B00000F046FE80468A4601222046294601F067
:1026C00052FE00223B4601F04BFA4246534600F0D0
:1026D000E7FE04460D463EE001260022BA463B4690
:1026E0002046294600F02CFE80460F460022534625
:1026F0002046294601F034FA42463B4600F0D0FE1F
:1027000004460D4627E04B4981421BDDDFF828A136
:102710000226002253462046294601F031F80022C5
:102720003B4600F00DFE80460F46002253462046F1
:10273000294601F015FA42463B4600F0B1FE044638
:102740000D4608E0032622462B4600203B4900F0B8
:10275000A7FE04460D4622462B461046194601F0B8
:102760000FF88B46824602460B4601F009F80746F1
:102770000246334888460B4606217844FFF7ADFDF4
:1027800052465B4600F0FCFF82462E488B463A4696
:10279000434605217844FFF7A0FD3A46434600F042
:1027A000EFFF02460B46002E504659460CDA00F069
:1027B000C7FD22462B4600F0E3FF01B022462B4620
:1027C000BDE8F04F01F0DAB800F0BAFD22462B4622
:1027D00000F0D6FF1C4A7A4402EBC603D3E900237B
:1027E00001F0BEF922462B4601F0BAF9174A7A44A5
:1027F00002EBC603D3E9002301F0C0F8009A002AD7
:10280000B8BF81F00041BDE8F88F0000000010441F
:102810000000F07F182D4454FB21F93FFB21F9BF44
:102820000000DC3F0000203E0000F33F0000F03FCE
:102830000000E63F008003400000F83F0000F0BFCA
:10284000921D0000501D0000EE1C0000B61C000090
:102850002DE9F04D9446CCF1000423F000464CEAFB
:102860000404524F46EAD4749A46884621F0004246
:10287000BC4206D8454240EA050442EAD474BC4250
:1028800004D9BDE8F04D6246FFF77FBDAAF140557F
:10289000A5F17F6555EA0C040BD0022404EAAA7462
:1028A000434DDFF810E144EAD87452EA000B04D03B
:1028B0000CE0BDE8F04DFFF7BBBE002C14BF012CAF
:1028C000BDE8F08D022C30D0032C32D056EA0C0B30
:1028D0000AD0BE4220D1BA4209D126F0804622F069
:1028E00080423346114617E000291ADB25E0DFF865
:1028F000C8B0FB44002C04BFDBE90001BDE8F08D4B
:10290000012C02BFDBE9000181F00041BDE8F08D40
:10291000022C0AD0032C0CD0BA4212D1B8F1000F0D
:102920000BDA23482549BDE8F08D28462449BDE847
:10293000F08D28467146BDE8F08D1D482149BDE85F
:10294000F08D921B12153C2AC4BF19481D490EDC9C
:10295000BAF1000FBEBF12F13C0F0020014606DBAA
:10296000624600F09DFD21F00041FFF761FE002C62
:1029700008BFBDE8F08D012C04BF81F00041BDE827
:10298000F08D114A114B022C07D001F0E9F82A46CC
:10299000BDE8F04D0A4B01F0E3B801F0E1F82A463A
:1029A000BDE8F04D064B00F0E9BF00000000F07FED
:1029B000182D4454FB2109C04A1C0000FB21F9BF1B
:1029C000FB210940FB21F93F075C143326A6A13CFB
:1029D0002DE9F0410446E07800F0C006E07800F010
:1029E0003F05607800F0010098B1EF102846E91724
:1029F00005EB5171C910A5EBC101491C01F0FF089D
:102A00000B48006820B10A484146026838469047A2
:102A100000BF607800F0080030B10548406818B188
:102A2000B011034A516888470020BDE8F0810000DA
:102A30006801002010B56FF00400FFF777F90A482D
:102A400000680A49B0FBF1F00949087008460078AF
:102A500000EB4001C1EBC0104FF6FF7101EAC0006E
:102A60000449088010BD00000C00002000127A000C
:102A7000480000204A0000200146114A12884A43BB
:102A80004FF0E0235A6100229A611A46126942F01F
:102A900001021A6100BF4FF0E022106900F001024C
:102AA0001AB100F48032002AF5D04FF0E02212690A
:102AB00022F001024FF0E0231A6100229A61704770
:102AC0004A0000200146114A12784A434FF0E023A1
:102AD0005A6100229A611A46126942F001021A6193
:102AE00000BF4FF0E022106900F001021AB100F4BB
:102AF0008032002AF5D04FF0E022126922F0010264
:102B00004FF0E0231A6100229A61704748000020CC
:102B10002DE9F04F8DB00746884615469946DDE908
:102B2000166B0024002030806B49887B5A4605A92B
:102B300000F004FA18B1601E0DB0BDE8F08F6648D1
:102B4000807A00F01400002867D09DF81400000679
:102B50009DF8151040EA01409DF8161040EA01204A
:102B60009DF81710084328609DF8180000069DF88E
:102B7000191040EA01409DF81A1040EA01209DF822
:102B80001B10084368609DF81C0000069DF81D108E
:102B900040EA01409DF81E1040EA01209DF81F10F8
:102BA0000843A8609DF8200000069DF8211040EA27
:102BB00001409DF8221040EA01209DF823100843AF
:102BC000E86004F11000C4B228680014019068683D
:102BD00000140290A86800140390E86800140490A0
:102BE00001984043029901FB0100039901FB010098
:102BF000049901FB010ABAF1706F02DBBAF1885F38
:102C000005DD00F0FBF900203080401E94E7B6F9A6
:102C1000000040F48070308000BF2F48807A00F0C0
:102C2000400020B305A9601C085C095D40EA012052
:102C300000B2A8F8000005A9E01C095C05AAA01CC8
:102C4000105C41EA002000B2A8F8020005A9601D4E
:102C5000095C201D105C41EA002000B2A8F80400C5
:102C6000A01DC4B2B6F9000040F0080030801A4838
:102C7000408900F4C07008B305A9601C085C095DB8
:102C800040EA012000B2388005A9E01C095C05AAD1
:102C9000A01C105C41EA002000B2788005A9601DEC
:102CA000095C201D105C41EA002000B2B880A01D24
:102CB000C4B2B6F9000040F0700030800648807A57
:102CC00000F0030018B105A90819FFF781FE484676
:102CD00000F020F800202FE76801002000BF054A1F
:102CE000128802F04002002AF9D0C2B2014B1B1D2B
:102CF0001A8070470038014000BF00BFFFF72CF872
:102D0000FFF798FE4FF4E13000F082FA01E0FFF7A0
:102D100015F9FCE7704700002DE9F04F99B0044623
:102D20000D4616464FF07E574FF000084FF0000951
:102D30004FF0000A12A813A918AB0EAACDE9001093
:102D400014A916A8FFF7E4FE18B1012019B0BDE8D8
:102D5000F08FBDF84C0000F4807000287ED00E98F3
:102D600001F074F983464FF09D4101F071F8074678
:102D70000F9801F06BF983464FF09D4101F068F820
:102D80008046109801F062F983464FF09D4101F0B2
:102D90005FF88146119801F059F983464FF09D4143
:102DA00001F056F8824639464FF0804001F066F94E
:102DB0004946059001F062F9414607904FF04040C6
:102DC00001F05CF95146059001F058F90690079919
:102DD00000F0DCFF834600F0ADFFCDE90801FFF70E
:102DE000EFFA4FF06632544BCDE90A0100F0C8FC0F
:102DF000CDE90C0100F072FA206049464FF08040A6
:102E000001F03CF94946029001F038F9414604903E
:102E10004FF0404001F032F94146029001F02EF9A6
:102E20000390049901F0F6F983464FF07E5100F0CB
:102E3000ADFF059000F07EFFCDE9080139464FF067
:102E4000804001F01BF94146039001F017F9494613
:102E500004904FF0804001F011F900E068E0514625
:102E6000039001F00BF98346049900F08FFF059061
:102E700000F060FFCDE90601DDE90823FFF7E8FC7B
:102E80004FF066322C4BCDE90A0100F079FCCDE918
:102E90000C0100F023FA28605146504601F0EEF88C
:102EA00049460490484601F0E9F8414603904046FF
:102EB00001F0E4F839460190384601F0DFF800905F
:102EC000019900F063FF0290039901F0A3F9834692
:102ED000049901F09FF9059000F02CFFCDE908015D
:102EE0005146384601F0CAF849460490404601F080
:102EF000C5F80390049900F049FF4FF08041059018
:102F000001F0BCF8834600F015FFCDE90601DDE9CC
:102F10000823FFF79DFC4FF06632074BCDE90A010D
:102F200000F02EFCCDE90C0100F0D8F9306001E092
:102F300002200BE7002009E766A64C40F8B50446DE
:102F40000F4616462C4890F8240010B94FF0FF3079
:102F5000F8BD2948807A10B94FF0FF30F8E7264ACB
:102F60001268917A244A526810786B460222FEF762
:102F700045FD10B14FF0FF30EAE79DF801009DF8E4
:102F8000001040EA0125A54203DA00203070401EFF
:102F9000DEE7194840684088B5EB600F17DD164A38
:102FA0001268517C144A526810786B460122FEF771
:102FB00025FD10B14FF0FF30CAE79DF8000000F08A
:102FC000100020B100F01AF86FF00100C0E7E2B283
:102FD000094B1B68D97A084B5B6818783B46FEF7AB
:102FE0000DFD10B14FF0FF30B2E795FBF4F0401E3D
:102FF00030700020ACE700006800002008B5704881
:10300000807A10B94FF0FF3008BD002000906C4A64
:103010001268D17B6A4A526810786B460122FEF72B
:1030200027FD10B14FF0FF30EEE7654A1268517985
:10303000634A526810786B460122FEF719FD10B101
:103040004FF0FF30E0E75E4A126811795C4A52683F
:1030500010786B460122FEF70BFD10B14FF0FF30E8
:10306000D2E7574890F82400002853D00C20009055
:10307000534A12681179524A526810786B460122FD
:10308000FEF7F6FC10B14FF0FF30BDE73220FFF73E
:10309000F3FCC02000904A48807A00F0010020B183
:1030A0009DF8000040F020000090454A1268117918
:1030B000434A526810786B460122FEF7D9FC10B1E2
:1030C0004FF0FF30A0E73E48407C10B10220009056
:1030D00001E0002000903A4A1268D17B384A5268D9
:1030E00010786B460122FEF7C3FC10B14FF0FF30A1
:1030F0008AE700200090324A12685179304A5268BB
:1031000010786B460122FEF7B3FC002855D04FF033
:10311000FF3079E704200090294A12681179284A83
:10312000526810786B460122FEF7A2FC10B14FF0F6
:10313000FF3069E72248807C20B92148807A00F07E
:10314000010010B94020009001E0602000901C4A6E
:10315000126811791A4A526810786B460122FEF7FC
:1031600087FC10B14FF0FF304EE73220FFF784FCB0
:103170001348407C10B10120009001E00020009035
:103180000F4A1268D17B0E4A526810786B460122B2
:10319000FEF76EFC10B14FF0FF3035E7084A1268B9
:1031A0005179074A52681078054B10330122FEF717
:1031B0005FFC10B14FF0FF3026E7002024E700004D
:1031C000680000202DE9F04106460F4600F0E2FBC2
:1031D000041E0D4618BF0120284320F00040C0F116
:1031E0007F6000F1E040C00F0ED0301C18BF0120FE
:1031F000384320F00040C0F17F6000F1E040C00F94
:1032000004BF0120FDF758F920462946BDE8F081AA
:1032100010B586B00446012144F20400FEF796FC86
:103220004FF40070ADF8140003208DF8160018203C
:103230008DF8170005A91C48FEF79EF94FF4806031
:10324000ADF8140004208DF8170005A91648FEF704
:1032500093F925208DF8000003208DF801008DF8EA
:10326000020001208DF803006846FEF735FC01944A
:103270000020ADF80800ADF80A00ADF80C00ADF87C
:1032800010000C20ADF80E0001A90848FEF77CFFE5
:10329000012240F225510548FEF751FF0121034864
:1032A000FEF70AFF06B010BD0008014000380140DB
:1032B00010B500290AD00878002807D005487844BE
:1032C000FDF7FAFC002801D0002010BD0248784428
:1032D00010BD00003E1300003613000021F0004234
:1032E000A2F16052B2F5801F01F0004328BFD2F175
:1032F0007F6C0BD95FEA001C43EAC20242EB5070BC
:1033000018BF704728BF20F001007047B2F5801F3A
:10331000BCBF184670474FEA410C1CF5001F02D293
:10332000084600F072BF70B500F0D4FA00000089C2
:10333000FFF7F6BF4FF00040A0F580007047000097
:1033400010B591EA030F48BF83F0004300F11084E9
:10335000841A71EB030C05D2121943EB0C03001B0A
:1033600061EB0C01DFF824E14FEA1154A4EB135C8C
:103370001EEA430F18BF9EEA445F73D023EA0E0390
:10338000DCF1200E21EA045143F4801332D322FAF7
:103390000CFE10EB0E0023FA0CFE41EB0E01CCF1FB
:1033A000200E03FA0EFE10EB0E0051F10001B1F5F4
:1033B000801FCCF1200E32D201EB045112FA0EF232
:1033C000BDE8104058BF7047401C38BF5FEA42025A
:1033D00018BF7047002814BF20F0010041F1000120
:1033E0004FEA410313F5001F38BF7047A1F1C041F8
:1033F00000F0BEBA012A43EB0302ACF1200CDCF171
:103400001F0E32BF4FF0000E23FA0CF310EB030037
:1034100041EB0451B4EB115FD0D0A1EB045101F5A5
:10342000801149085FEA300001EB04510ED350F1DE
:10343000000038BF12FA0EFE08D1BDE81040C9E7FF
:10344000401C38BF5FEA4202CAD1C3E7BDE8104062
:103450004FEA410313F5001F38BF7047A1F1C04187
:1034600000F086BA9EEA445F08D011EA5E0FBDE81C
:10347000104004BF01F0004100207047BDE810403B
:1034800070B500F027FA00BF64FBBE3E0000E0FF0D
:1034900002494FF0000000F034BF00BF0000F87F89
:1034A0002DE9C04130B4DFF8A0C23CEA111418BFC6
:1034B0003CEA131400F0EC8081EA03051CEA1114C5
:1034C00044EAD57418BF1CEA131500F0C780A4EBBA
:1034D00005044FF0004545EAC12145EAC32341EA0E
:1034E000505143EA525304F17F74994204F5003479
:1034F0004FEAC0204FEAC22208BF904200F09C80F1
:103500004FEA13650FF24016765D4FEA134506FB4E
:1035100005F7C7F1807706FB07F74FEAD737A7FB18
:1035200003687642C8F58038A7FB06CE38BFA8F1FD
:10353000010807FB08E64FF0000EA6FB028CE6FB35
:1035400003CEDCF1000CCEF1004E38BFAEF1010E1F
:10355000A6FB0C584FF000074FF00005E6FB0E8766
:10356000A1FB08C6A0FB07CE16EB0E0645F1000531
:10357000E1FB076515F1E04E7EBFA4F580345FEAFC
:1035800046066D4116F1800745F100054FEA172701
:103590004FEA066647EA0567A6F1DE46B6F1805FA8
:1035A0004FEA15251FD9384624F0010C05EBC471EC
:1035B000BCF1FE6F01EB0C1102D8F0BCBDE800813C
:1035C00024425CBF01F5801E9EEAC47F02D4F0BC99
:1035D000BDE80081244238D4F0BCA1F1C041BDE86F
:1035E000004100F0C5B94FEAD22242EA43524FEA05
:1035F000D323A7FB02864FEAD02040EA415007FBC5
:1036000003661EEA0E0F4FEAD12105FB026658BF82
:10361000A6EB0056B6EB00564FEA520E4EEAC37EBA
:1036200018EB0E0E56EB530EBDD518EB02085E419B
:103630007F1C55F10005B6E74FF480154FF00007E9
:103640004FF000064FF00008ADE7F0BC4FF000006F
:1036500001F1C04101F00041BDE8008111EA0C1FF9
:103660000CEA131500D00CE013EA0C1F00F02580C3
:103670004FF00000F0BC81EA030101F00041BDE819
:103680000081F0BCBDE8004181EA030100F070B99F
:10369000F0BCBDE8004170B500F01CF9097EFC3EAD
:1036A00000F007B881EA03014FF0000001F000418B
:1036B000704781EA030100F05BB9F0BCBDE800414E
:1036C0004FF0000021497047FFFDFBF9F7F5F4F2D8
:1036D000F0EEEDEBE9E8E6E4E3E1E0DEDDDBDAD8AD
:1036E000D7D5D4D3D1D0CFCDCCCBCAC8C7C6C5C40B
:1036F000C2C1C0BFBEBDBCBBBAB9B8B7B6B5B4B322
:10370000B2B1B0AFAEADACABAAA9A8A8A7A6A5A40C
:10371000A3A3A2A1A09F9F9E9D9C9C9B9A999998D0
:103720009797969595949393929191908F8F8E8E73
:103730008D8C8C8B8B8A8989888887878685858400
:1037400084838382828181800000FF070000F87FEC
:1037500010F0004248BF4042B0FA80F310FA03F183
:103760000AD0C3F11D0303F580634FEA415002EB19
:10377000035202EBD12170474FF000007047000068
:10378000DFF848C170B51CEA111E1EBF1CEA1315F4
:103790009EEA0C0F95EA0C0F00F06F8081EA03049B
:1037A00023EA4C134EEAD47E21EA4C1141F48011F5
:1037B00043F48013AE44A1FB024CA0FB0365AEF1C1
:1037C0007F7E361955EB0C05A1FB034C4CF1000331
:1037D000A0FB021C16EB0C06654153F100030942E5
:1037E00018BF46F0010613F4007F0BD14FEA0331F6
:1037F0004FEA0530340341EA155140EA16506FF0A4
:1038000003020AE04FEAC3214FEAC520F40241EA6D
:10381000555140EA56506FF0020202EB2E4201EB86
:10382000025585EACE710AD05FEA440C18BF24F035
:10383000004450F1000041F1000120EAD47040F250
:10384000FE7C624500D270BDA84214BF4FF0804498
:103850004FF04044002E08BF0024BEF1806FA8BF87
:10386000A1F1C041BDE8704080F282804FF00000BD
:1038700001F1C04101F0004170479EEA0C0F0CEAD3
:10388000131518BF95EA0C0F06D04FF0000081EA1F
:10389000030E0EF0004170BD00F01CF88900013EDF
:1038A00000F007B800F009B84FEA430C5FEA5C5C2F
:1038B00008D081EA030100F05BB84FEA410C5FEAEF
:1038C0005C5CF6D14FF00000014970470000FF0733
:1038D0000000F87F0EF1020E2EF0030E5EF8046B6E
:1038E000364205D4012A43EB030515F5001F12D813
:1038F000012841EB010C1CF5001F0CD80ED14FEA3A
:10390000D17C15F5001F0CEB4C0C0CF1020C08BF20
:103910004CEBD37C04E04FF0080C01E04FEAD37C81
:103920000CEB4C0526FA05F606F00706B6F1040C7A
:1039300006D20EEB860CBDE870404CF0010C6047DF
:10394000DFE80CF0090B02024FF000414FF00000DD
:10395000A1F5002170BD19461046012851EB010464
:1039600018BFD4F5001484BF002001F0004170BDE1
:103970000808A0F500114FEA3101704791EA030FE2
:1039800010B581F000413FF5E3AC83F0004300F057
:10399000EFB800002DE9F04101F5801CBCF5001FD7
:1039A000C0F2C3804FEA115C21EA0C510CF1FD0C0E
:1039B00041F480115FEA5C0C0CF5C07C01D340003F
:1039C00049413DA4890241EA905187028E0E0A0CBA
:1039D000A45D04FB04F602FB06F6C6F14046A4FB18
:1039E0000662F60D46EA422606FB06F4A4FB012316
:1039F0005242C3F1404338BF5B1EA6FB0242002483
:103A0000E6FB0324D20B42EA4446A6FB0623A1FBB5
:103A100002E2A3FB07E4A4184FF0000252F10002F7
:103A2000E3FB01426442C2F1404E38BFAEF1010EE9
:103A3000A6FB04234FF00002E6FB0E32A2FB034676
:103A40004FF00004B61954F10004E2FB0264A1FB3C
:103A500006E6A4FB07E816EB08064FF0000858F14D
:103A60000008E4FB01687642C8F1405838BFA8F16D
:103A70000108A2FB06E4A3FB08E52D194FF00004A2
:103A800054F10004E2FB0854A1FB05E6A7FB04E89F
:103A900018EB06084FF0000656F10006E1FB04861D
:103AA00018F1200556F10006A809A8F11B08B10974
:103AB00008F03F08B8F10A0F40EA86601CD901EB14
:103AC0000C51BDE8F08100BFFCF5EEE8E2DDD8D393
:103AD000CFCBC7C3C0BDB9B6B4B1AEACA9A7A5A37F
:103AE000A19F9D9B9A9896959392908F8D8C8B8990
:103AF0008887868584838281A0FB006800FB01F2B1
:103B000008EB4208B8EB872807D5341858EB0104B6
:103B1000D5D5401C51F10001D1E7341A78EB0104EE
:103B2000CDD4401E71F10001C9E75FEA4C0C5FEA99
:103B30009C5C0DD105D34FF0000001F00041BDE8C1
:103B4000F081BDE8F04170B5FFF7C4FE6DDBFFBE4C
:103B5000BDE8F0414FF00000004970470000F87FD9
:103B600010B591EA030F48BF83F000433FF5F0AB77
:103B7000841A71EB030C07D212198CF0004C43EB42
:103B80000C03001B61EB0C01DFF8A4E14FEA1154B8
:103B9000A4EB135C1EEA430F18BF9EEA445F00F0DB
:103BA000B08023EA6E03524221EA0451C3EB6E0354
:103BB00038BF5B1EDCF1200E25D322FA0CFE10EB81
:103BC0000E0043FA0CFE41EB0E01CCF1200E03FA7D
:103BD0000EFE10EB0E0051F10001CCF1200E29D4A5
:103BE00012FA0EF201EB0451BDE8104058BF7047C5
:103BF000401C1CBFB2F1004F704700280CBF491C8D
:103C000020F00100704712EB020E43EB030218BFD5
:103C10004FF0010E4EEA4202ACF1200CDCF11E0E18
:103C200054D943FA0CFE10EB0E0051F1FF31CCF1E8
:103C30001E0ED5D50EF1010E12FA0EFE404141EBDB
:103C4000010101EB445C5FEA5C5C10D910EBDE70B3
:103C500001EB045138BFBEF1004FBDE8104018BF62
:103C6000704700280CBF491C20F00100704730D27B
:103C70004FEAD42C11F5001124F400641BD0B1FAE2
:103C800081F20B3AA41AA41ED2F12003914030FA1B
:103C900003F31943904001EBCC71002C01EB04516C
:103CA000BDE81040A8BF704701F1C0414FF00000CF
:103CB00001F000417047B0FA80F310FA03F100D12F
:103CC00010BDE41A173C4805C90AE4E701EB0451AA
:103CD00010BD491001EB0451BDE810404FEA30001F
:103CE00002E04FF0000170474A0008BF0042F8D0E0
:103CF000B2F5001F28BF704701F000414FF00000EF
:103D000070479EEA445F07D011EA5E0FBDE810409D
:103D100004BF002100207047BDE8104070B5FFF7D8
:103D2000D9FD00BF40DFF63E83F0004110467047EA
:103D30000000E0FF43004FEAD30C4FEA3C0C434045
:103D40001FBF40070CF1605113F0FE4F70471CF08D
:103D5000006F03D100200CF0004170470CF00043CD
:103D600043EA507010B540EACC0000F008FA00BFFA
:103D7000000000924FEA0001FFF7FABD4FF000414A
:103D80004FF00000A1F500217047000090EA010FFC
:103D900048BF81F0004100F14482421A3CBF801AC2
:103DA00089184FEAD0524FF07F4C1CEA410FA2EB2A
:103DB000D15318BF9CEA026F00F03B804FF0004CDB
:103DC0004CEA00204CEA012121FA03FC10EB0C0C18
:103DD0001ED202F1FF325FEA1C2040EBC25038BF16
:103DE00070471CF07F0F4FEA400C18BFBCF17F4FAB
:103DF00038BF7047C3F12003994008BF20F001008D
:103E0000BCF17F4F38BF7047A0F1C04000F0FDB952
:103E10004FEA3C00000A40EBC25028BF1CF0FF0FE5
:103E20004FEA400CE6D018BFBCF17F4F38BF704757
:103E3000EAE79CEA026F05D010EA5C0F08BF00F0C9
:103E40000040704710B500F09AF900BF64FBBE3E19
:103E50004FF47F0C1CEAD0121EBF1CEAD11392EA69
:103E60000C0F93EA0C0F00F0858090EA010F48BF19
:103E700042F4807240F4000C41F400002CF07F41C9
:103E800020F07F4000B58142A2EB03020FF2081C34
:103E9000ACEB504EC0F100009EF800E04FEA4E0E31
:103EA00000FB0EFC38BF49004FEA2C1C02F5FA0259
:103EB0000CFB0EF34FEACE1E4FEA112C4FEAC12144
:103EC0000EEB635E42EB22420EFB0CFC4FEA1C53EE
:103ED00000FB03114FEA112C4FEA01310EFB0CFCE1
:103EE0004FEADC4C00FB0C11C14228BF09184CEB17
:103EF00003335DF804EB10EB410143EBC250B2F524
:103F00007C0F38BF704729D512F0F00F1CBF00F1AD
:103F1000C04000F00040704700818283848586871E
:103F200088898B8C8D8E8F919293959697999A9C78
:103F30009D9FA0A2A3A5A7A8AAACAEB0B2B3B5B7E7
:103F4000B9BCBEC0C2C5C7C9CCCED1D4D7D9DCDFBD
:103F5000E2E6E9ECF0F3F7FAFE0000004FEA400C6D
:103F60000CF1807CBCF17E4F28BF7047B0F1C0409F
:103F700000F04BB990EA010F0CEAD11348BF42F4AC
:103F80008072624538BF634507D213F47F0F16D0A5
:103F900080EA010000F00040704710B500F0EFF833
:103FA000097EFC3E00F005B880EA010000F0004008
:103FB000704780EA010000F0004000F026B912F4DA
:103FC0007F0F04BF0248704780EA010000F01DB96E
:103FD0000000C07F41000B0ED3F19E0208D950F4BF
:103FE00000034FEA032323FA02F048BF4042704720
:103FF00010B500F0C4F800BF49922480002070473B
:104000006FF0004282EA200070470000C10DD1F13C
:104010009E0206DB4FEA002343F0004323FA02F03E
:104020007047004207D54FEA4001B1F1FE4F02D27E
:104030004FF00000704710B500F0A1F849922480BD
:10404000002070476FEA20007047000010F0004128
:1040500048BF4042B0FA80F310FA03F2C3F19D0367
:104060000BD051EAC35101EB1220530638BF704701
:1040700000F1010008BF20F0010070474FF47F0CF1
:104080001CEAD0121EBF1CEAD11392EA0C0F93EA6D
:104090000C0F00F0478090EA010F48BF42F4807295
:1040A0004FF0004C4CEA00204CEA012102EB0302E5
:1040B000A0FB0113A2F50002002918BF43F0010381
:1040C0005B0028BF4FEA330342EB22425FEA132C26
:1040D0004CEBC2502EBFBCEB436FB2F57C0F704768
:1040E0004FEA036CBCF1004F08BF20F00100B2F5AD
:1040F0007C0F38BF70470BD582F0FF0212F5803F6E
:10410000C8BF704700F1C040D8BF00F00040704702
:1041100000F5000C5FEA4C0C48BF7047B0F1C0409E
:1041200000F073B890EA010F0CEAD11348BF42F4D3
:104130008072624538BF634504D280EA010000F016
:104140000040704710B500F01AF800BF8900013E2A
:1041500000F007B800F009B85FEA410C5FEA1C6C98
:1041600008D080EA010000F050B85FEA400C5FEA36
:104170001C6CF6D14FF00040A0F5800070470EF1A6
:10418000020E2EF0030E5EF8044B244204D44FEAD4
:104190004102B2F17F4F11D84FEA4003B3F17F4F94
:1041A0000CD80ED14FEAD07CB2F17F4F0CEB4C0C07
:1041B0000CF1020C08BF4CEBD17C04E04FF0080C72
:1041C00001E04FEAD17C0CEB4C0324FA03F404F039
:1041D0000704B4F1040C06D20EEB840CBDE81040C9
:1041E0004CF0010C6047DFE80CF0070802024FF0CA
:1041F0000040A0F5800010BD0846420018BFD2F173
:10420000807288BF00F0004010BDFF2141EAD0500D
:10421000C005704790EA010F48BF81F000413FF5AB
:10422000BCAD421A04D882F00042A0EB0200114457
:104230004FEAD0524FF07F4C1CEA410FA2EBD15312
:1042400018BF9CEA026F4AD04FF0004C4CEA0020A5
:104250004CEA012121FA03FCB0EB0C0C0FD412F054
:10426000FE0F36D05FEA4C001DD5001240EBC25065
:1042700038BF70471CF03F0F18BF70470BE0A2F12A
:1042800001025FEA1C2040EBC25038BF70471CF0AF
:104290007F0F18BF7047C3F12003994014BF401E21
:1042A00020F00100704780084FEA122308BF7047D2
:1042B000B0FA80FCA2EB0C02CCF1280C60FA0CF0F6
:1042C00093EA122F04BF00EBC25070474FEAC3704D
:1042D0007047130A5FEADC1008BF7047F6E79CEAF4
:1042E000026F04D010EA5C0F08BF0020704710B5C1
:1042F000FFF745FF40DFF63E81F000407047FCF7D6
:1043000013BA0CF00F03092B08BF082000F05980E6
:104310000A2B0BD0082B18BF704708BF1CF0400FAA
:104320000AD04FF000004FF0000170471CF0400F22
:1043300018BF4FF0004070471CF0100F08D020F05D
:10434000704300F07F4242EAD3014FEA4370704766
:1043500000F0604021F07F4242EA000201F07F401D
:1043600040EA727070474FF0FF0C4CF4E06C1CEAAE
:1043700011531CBF9CEA030C9445C2BFDA4201EB07
:1043800002517047002B0DD0BCF1000F0FD0002A56
:1043900001F00041A4BF41F0E04141F07F614FF0E6
:1043A0000000704701F000414FF00000704750EAF4
:1043B00001334FF09B0C18BF4CF0806C7FF468A861
:1043C00070471CF4801F11D01CF4E02F03D06FEA5B
:1043D000CC31490070474FF04050EFF3008222F09B
:1043E000704242EA000282F3008870474FF00000FA
:1043F0007047000075191A0C6A231B1C1F20727469
:10440000433B4138393A6B6C376F06246D6E700050
:104410006800000476005401F7FD000183000000ED
:1044200000080000000100183200050000002041D3
:104430000000D242295C0F3E9A99993E3333733F74
:10444000295C0F3E0400000800000000000000028C
:104450000001000010000000555555555555C53F49
:104460007D6FEB0312D6D4BF5544880E55C1C93FAA
:104470003B8F68B52882A4BF88B20175E0EF493F41
:1044800009F7FD0DE13D023F4B2D8A1C273A03C081
:10449000C88A599CE52A004059018D1B6C06E6BF6D
:1044A00082922EB1C5B8B33F4FBB610567ACDD3F0B
:1044B000182D4454FB21E93F9BF681D20B73EF3F4B
:1044C000182D4454FB21F93FE2652F227F2B7A3CC3
:1044D000075C143326A6813CBDCBF07A8807703C7C
:1044E000075C143326A6913CC4EB98999999C9BFEF
:1044F000711623FEC671BCBF6D9A74AFF2B0B3BF24
:104500009AFDDE522DDEADBF2F6C6A2C44B4A2BFE3
:104510000D5555555555D53FFF8300922449C23F4F
:104520006E204CC5CD45B73F513DD0A0660DB13F83
:10453000EB0D76244B7BA93F11DA22E33AAD903F95
:10454000000000000000000002400000000000A089
:104550000000000005400000000000C8000000004E
:104560000C4000000000409C0000000019400000CA
:104570000020BCBE0000000034400000BFC91B8EFC
:1045800000000004B5400000504BCFD06607E2CFDA
:10459000010000006C4100003E8251AADFEEA7340A
:1045A00001000000D9420000DCB5A0E23A301F97BC
:1045B000FFFFFFFFB4450000FD25A0C8E9A3C14FE0
:1045C000FFFFFFFFFF3F0000000000800000000031
:1045D000FF3F0000000000800000000018460008B7
:1045E00000000020A00000006C010008B846000890
:1045F000A000002038070000880100081C0000000F
:1046000043000000F8FFFFFF0C0000000E00000058
:104610000F0000002E00000000000000000000005D
:104620000000000000A24A0400000000000000009A
:104630000102030406070809000000000000000052
:10464000000000000000000000000000000000006A
:10465000000000000000000000000000000000005A
:104660000000000000000000000000000000010247
:1046700003040102030406070809020406080000F7
:10468000F44300081044000800000000000000008F
:10469000000000000000000000000000000000001A
:1046A00000000000000000001C44000801000000A1
:0846B000010000000100000000
:0400000508000131BD
:00000001FF
